:100000000C9462000C948A000C948A000C948A0070
:100010000C948A000C948A000C948A000C948A0038
:100020000C948A000C948A000C948A000C948A0028
:100030000C948A000C948A000C948A000C948A0018
:100040000C94F2030C948A000C94C0030C949A0351
:100050000C948A000C948A000C948A000C948A00F8
:100060000C948A000C948A000000000024002700F1
:100070002A0000000000250028002B0000000000DE
:1000800023002600290004040404040404040202DA
:100090000202020203030303030301020408102007
:1000A0004080010204081020010204081020000012
:1000B0000008000201000003040700000000000027
:1000C0000000F10511241FBECFEFD8E0DEBFCDBF89
:1000D00021E0A0E4B1E001C01D92AB3EB207E1F720
:1000E00011E0A0E0B1E0EAE0F0E102C005900D927D
:1000F000A034B107D9F710E0C2E6D0E004C02197E0
:10010000FE010E94FD07C136D107C9F70E943C04D9
:100110000C9403080C940000AF92BF92CF92DF9230
:10012000EF92FF920F931F93CF93DF936C017B01AC
:100130008B01040F151FEB015E01AE18BF08C0173D
:10014000D10759F06991D601ED91FC910190F081B0
:10015000E02DC6010995892B79F7C501DF91CF9173
:100160001F910F91FF90EF90DF90CF90BF90AF90D5
:100170000895FC01538D448D252F30E0842F90E0AD
:10018000821B930B541710F0CF9608950197089592
:10019000FC01918D828D981761F0A28DAE0FBF2F5B
:1001A000B11D5D968C91928D9F5F9F73928F90E0B1
:1001B00008958FEF9FEF0895FC01918D828D981720
:1001C00031F0828DE80FF11D858D90E008958FEF5D
:1001D0009FEF08952FB7F89480914A0190914B01B9
:1001E000A0914C01B0914D012FBF80935601909387
:1001F0005701A0935801B09359018EE491E00E94F9
:10020000DC0097FF26C02FB7F89480914A019091A7
:100210004B01A0914C01B0914D012FBF409156016F
:10022000509157016091580170915901841B950BB1
:10023000A60BB70B409152015091530160915401AC
:100240007091550184179507A607B707B0F28FEF95
:100250009FEF0895FC01918D228D892F90E0805CA5
:100260009F4F821B91098F73992708958EE491E027
:100270000E942A0121E0892B09F420E0822F0895B1
:1002800080E090E0892B29F00E94360181110C94C6
:1002900000000895FC01A48DA80FB92FB11DA35A29
:1002A000BF4F2C91848D90E001968F739927848F96
:1002B000A689B7892C93A089B1898C9183708064B9
:1002C0008C93938D848D981306C00288F389E02D5A
:1002D00080818F7D80830895EF92FF920F931F930B
:1002E000CF93DF93EC0181E0888F9B8D8C8D9813E9
:1002F0001AC0E889F989808185FF15C09FB7F894F5
:10030000EE89FF896083E889F98980818370806440
:1003100080839FBF81E090E0DF91CF911F910F918B
:10032000FF90EF900895F62E0B8D10E00F5F1F4F9A
:100330000F731127E02E8C8D8E110CC00FB607FCA9
:10034000FACFE889F989808185FFF5CFCE010E9437
:100350004A01F1CFEB8DEC0FFD2FF11DE35AFF4F5A
:10036000F0829FB7F8940B8FEA89FB8980818062C5
:10037000CFCFCF93DF93EC01888D8823B9F0AA8982
:10038000BB89E889F9898C9185FD03C0808186FD50
:100390000DC00FB607FCF7CF8C9185FFF2CF80819F
:1003A00085FFEDCFCE010E944A01E9CFDF91CF91C9
:1003B0000895833081F028F4813099F08230A9F0DB
:1003C00008958730A9F08830C9F08430B1F4809165
:1003D00080008F7D03C0809180008F7780938000A4
:1003E000089584B58F7784BD089584B58F7DFBCF44
:1003F0008091B0008F778093B00008958091B00015
:100400008F7DF9CF1F93CF93DF93282F30E0F90131
:10041000E255FF4F8491F901E656FF4FD491F9015F
:10042000EA57FF4FC491CC23A9F0162F81110E94E7
:10043000D901EC2FF0E0EE0FFF1FEE58FF4FA59112
:10044000B4918FB7F894EC91111108C0D095DE23C8
:10045000DC938FBFDF91CF911F910895DE2BF8CFF2
:10046000CF93DF9390E0FC01E656FF4F24918A572B
:100470009F4FFC0184918823D1F090E0880F991F51
:10048000FC01E859FF4FA591B491FC01EE58FF4FD4
:10049000C591D49161110EC09FB7F8948C91E22F51
:1004A000E0958E238C932881E223E8839FBFDF9120
:1004B000CF9108958FB7F894EC91E22BEC938FBF16
:1004C000F6CF3FB7F8948091410190914201A091FD
:1004D0004301B091440126B5A89B05C02F3F19F0F8
:1004E0000196A11DB11D3FBFBA2FA92F982F8827B4
:1004F000BC01CD01620F711D811D911D42E0660F8F
:10050000771F881F991F4A95D1F708958F929F9260
:10051000AF92BF92CF92DF92EF92FF924B015C01BC
:100520000E9461026B017C010E9461026C197D09CD
:100530008E099F09683E734081059105A8F321E06B
:10054000821A9108A108B10888EEC80E83E0D81E6F
:10055000E11CF11C81149104A104B10429F7FF905E
:10056000EF90DF90CF90BF90AF909F908F900895C5
:10057000CF92DF92EF92FF92CF93DF9320914901C8
:10058000211109C021E040914701509148014817CD
:10059000590709F420E0209349018B30910508F0B8
:1005A00052C0BC019093480180934701072E000C74
:1005B000880B990B0E94200620E030E040E251E4D5
:1005C0000E94330720E030E04FE753E40E945B06CF
:1005D0000E94A5076B01EB0161E089E00E943002F7
:1005E000209751F460E089E0DF91CF91FF90EF9088
:1005F000DF90CF900C940202CF3FD10511F461E05F
:10060000F2CFE7EBF0E0E491E33049F140F4E13080
:10061000B1F0E230F9F0C038D1058CF7E3CFE73024
:1006200041F1E83071F1E430B1F7809180008062EF
:1006300080938000D0928B00C0928A0004C084B561
:10064000806884BDC7BCDF91CF91FF90EF90DF90B1
:10065000CF90089584B5806284BDC8BCF4CF8091EA
:100660008000806880938000D0928900C0928800CA
:10067000EACF8091B00080688093B000C092B30050
:10068000E2CF8091B00080628093B000C092B4004D
:10069000DACFFC0101900020E9F73197AF01481B48
:1006A000590BBC018EE491E00C948C008F929F92C8
:1006B000AF92BF920F931F93CF93DF93CDB7DEB767
:1006C000A1970FB6F894DEBF0FBECDBF19A242307E
:1006D00008F44AE08E010F5D1F4F842E912CB12C3F
:1006E000A12CA50194010E94DB07E62FB901CA01E4
:1006F000EA30F4F4E05DD801EE938D01232B242B36
:10070000252B79F790E080E0109719F0CD010E9439
:100710004903A1960FB6F894DEBF0FBECDBFDF919F
:10072000CF911F910F91BF90AF909F908F900895A0
:10073000E95CE1CF1F920F920FB60F9211242F9315
:100740003F934F935F936F937F938F939F93AF9359
:10075000BF93EF93FF938EE491E00E944A01FF91D3
:10076000EF91BF91AF919F918F917F916F915F9129
:100770004F913F912F910F900FBE0F901F901895A2
:100780001F920F920FB60F9211242F938F939F9366
:10079000EF93FF93E0915E01F0915F018081E09122
:1007A0006401F091650182FD1BC090818091670119
:1007B0008F5F8F7320916801821741F0E09167018C
:1007C000F0E0E25BFE4F958F80936701FF91EF9120
:1007D0009F918F912F910F900FBE0F901F901895A2
:1007E0008081F4CF1F920F920FB60F9211242F9396
:1007F0003F938F939F93AF93BF9380914A019091C2
:100800004B01A0914C01B0914D013091400123E08A
:10081000230F2D3758F50196A11DB11D20934001DE
:1008200080934A0190934B01A0934C01B0934D01EA
:100830008091410190914201A0914301B091440106
:100840000196A11DB11D8093410190934201A09397
:100850004301B0934401BF91AF919F918F913F911C
:100860002F910F900FBE0F901F90189526E8230F21
:100870000296A11DB11DD2CF789484B5826084BD4B
:1008800084B5816084BD85B5826085BD85B5816094
:1008900085BD80916E00816080936E001092810012
:1008A00080918100826080938100809181008160CD
:1008B000809381008091800081608093800080918E
:1008C000B10084608093B1008091B000816080931A
:1008D000B00080917A00846080937A0080917A00E1
:1008E000826080937A0080917A00816080937A00A0
:1008F00080917A00806880937A001092C10061E054
:1009000089E00E94300261E08CE00E94300260E0E9
:1009100082E00E943002E0915E01F0915F0182E08E
:100920008083E0915A01F0915B011082E0915C01BB
:10093000F0915D018FEC808310926601E09162017D
:10094000F091630186E08083E0916001F0916101A4
:10095000808180618083E0916001F09161018081FC
:1009600088608083E0916001F091610180818068FE
:100970008083E0916001F091610180818F7D8083AF
:1009800082E191E00E94490386E291E00E944903DE
:10099000C0EBD0E00CE910E098E8E92E90E0F92EE9
:1009A00020E4B22E30E0C32E30E0D32EFE0184913D
:1009B000F801A490F7019490992009F488C081115E
:1009C0000E94D901E92DF0E0EE0FFF1FE458FF4F20
:1009D000A591B4918C91A82209F479C090E080E0AF
:1009E0000E94B80261E08CE00E94020268EC70E0B4
:1009F00080E090E00E94860260E08CE00E940202AB
:100A000068EC70E080E090E00E94860280914901ED
:100A1000882309F448C089E291E00E94490340908C
:100A2000470150904801052C000C660877084AE001
:100A3000C301B20177FE0DC06DE28EE491E00E9429
:100A40006C0166277727CB01641975098609970918
:100A50004AE00E94560385E391E00E94490389E33E
:100A600091E00E9449034090450150904601052CB9
:100A7000000C660877084AE0C301B20177FE0DC09A
:100A80006DE28EE491E00E946C0166277727CB012E
:100A900064197509860997094AE00E94560386E29F
:100AA00091E00E9449031092490161E070E080E00A
:100AB00090E00E948602C114D10409F477CF0E940D
:100AC0003601882309F472CF0E9400006FCFB092E4
:100AD0007C0080917A00806480937A0080917A0013
:100AE00086FDFCCF90917800809179008927982726
:100AF000892720914901211109C021E04091450138
:100B0000509146014817590709F420E02093490104
:100B100090934601809345018EE491E00E942A0162
:100B2000892B09F473CF0E94EA00FC0197FD55C0A0
:100B30008D32910541F0C0970A9728F08EE491E03C
:100B40000E94C800F0CF412C512C3201A12CE13081
:100B5000F105D1F0ED32F105E9F1CF01C0970A9727
:100B600098F4AAE0B0E0A30192010E9419072F01B6
:100B7000FF0F66087708460E571E681E791EF0E3C1
:100B80004F1A5108610871088EE491E00E94C80074
:100B90000E94EA00FC01C0970A97C8F2E130F10513
:100BA000B1F2AA2041F07094609450944094411C9A
:100BB000511C611C711CC2010E94B8028091470146
:100BC0009091480160E0892B09F061E08CE00E947F
:100BD00002021CCFAA24A394D7CF412C512C32015E
:100BE000EACFEEE4F1E01382128288EE93E0A0E017
:100BF000B0E084839583A683B78384E091E09183FA
:100C0000808385EC90E09587848784EC90E09787DB
:100C1000868780EC90E0918B808B81EC90E0938BC9
:100C2000828B82EC90E0958B848B86EC90E0978BA6
:100C3000868B118E128E138E148E0895E89409C03F
:100C400097FB3EF490958095709561957F4F8F4FFF
:100C50009F4F9923A9F0F92F96E9BB279395F69515
:100C6000879577956795B795F111F8CFFAF4BB0F93
:100C700011F460FF1BC06F5F7F4F8F4F9F4F16C0F7
:100C8000882311F096E911C0772321F09EE8872F81
:100C9000762F05C0662371F096E8862F70E060E03D
:100CA0002AF09A95660F771F881FDAF7880F9695B6
:100CB000879597F908950E946E060C94DF060E94AE
:100CC000D10638F00E94D80620F0952311F00C943C
:100CD000C8060C94CE0611240C9413070E94F0064B
:100CE00070F3959FC1F3950F50E0551F629FF0017F
:100CF000729FBB27F00DB11D639FAA27F00DB11D98
:100D0000AA1F649F6627B00DA11D661F829F222720
:100D1000B00DA11D621F739FB00DA11D621F839FA7
:100D2000A00D611D221F749F3327A00D611D231F7D
:100D3000849F600D211D822F762F6A2F11249F57CB
:100D400050409AF0F1F088234AF0EE0FFF1FBB1FCE
:100D5000661F771F881F91505040A9F79E3F51058D
:100D600080F00C94C8060C9413075F3FE4F3983EA0
:100D7000D4F3869577956795B795F795E7959F5F37
:100D8000C1F7FE2B880F911D9695879597F90895C9
:100D900097F99F6780E870E060E008959FEF80EC2E
:100DA000089500240A9416161706180609060895D1
:100DB00000240A9412161306140605060895092E37
:100DC0000394000C11F4882352F0BB0F40F4BF2BA6
:100DD00011F460FF04C06F5F7F4F8F4F9F4F0895E6
:100DE00057FD9058440F551F59F05F3F71F04795DC
:100DF000880F97FB991F61F09F3F79F087950895C1
:100E0000121613061406551FF2CF4695F1DF08C0DF
:100E1000161617061806991FF1CF869571056105FC
:100E200008940895E894BB2766277727CB0197F9A4
:100E300008950E942407A59F900DB49F900DA49F34
:100E4000800D911D11240895A29FB001B39FC00190
:100E5000A39F700D811D1124911DB29F700D811DE6
:100E60001124911D08950E9447070C94DF060E94EB
:100E7000D80658F00E94D10640F029F45F3F29F0CF
:100E80000C94C80651110C9413070C94CE060E94C2
:100E9000F00668F39923B1F3552391F3951B550B95
:100EA000BB27AA2762177307840738F09F5F5F4F3D
:100EB000220F331F441FAA1FA9F335D00E2E3AF07C
:100EC000E0E832D091505040E695001CCAF72BD094
:100ED000FE2F29D0660F771F881FBB1F26173707E5
:100EE0004807AB07B0E809F0BB0B802DBF01FF2717
:100EF00093585F4F3AF09E3F510578F00C94C80626
:100F00000C9413075F3FE4F3983ED4F386957795EE
:100F10006795B795F7959F5FC9F7880F911D9695CF
:100F2000879597F90895E1E0660F771F881FBB1F2B
:100F3000621773078407BA0720F0621B730B840BD8
:100F4000BA0BEE1F88F7E09508950E94AC076894ED
:100F5000B1110C94130708950E94F80688F09F576A
:100F600098F0B92F9927B751B0F0E1F0660F771FCD
:100F7000881F991F1AF0BA95C9F714C0B13091F0C3
:100F80000E941207B1E008950C941207672F782F82
:100F90008827B85F39F0B93FCCF386957795679588
:100FA000B395D9F73EF490958095709561957F4FF4
:100FB0008F4F9F4F0895A1E21A2EAA1BBB1BFD0164
:100FC0000DC0AA1FBB1FEE1FFF1FA217B307E40728
:100FD000F50720F0A21BB30BE40BF50B661F771F80
:100FE000881F991F1A9469F7609570958095909560
:100FF0009B01AC01BD01CF010895EE0FFF1F0590CD
:0A100000F491E02D0994F894FFCF5D
:10100A00000000006C018C00B900B9012A01C80077
:10101A00DC0056656C6F6369646164206465203026
:10102A002061203130000D0A0056656C6F636964D7
:10103A0061643A2000202D20005065736F3A200029
:00000001FF
