:100000000C9464000C948C000C948C000C948C0068
:100010000C948C000C948C000C948C000C948C0030
:100020000C948C000C948C000C948C000C948C0020
:100030000C948C000C948C000C948C000C948C0010
:100040000C9440070C948C000C940E070C94E8065A
:100050000C948C000C948C000C948C000C948C00F0
:100060000C948C000C948C006364696E6F707375D3
:1000700078585B0000000000240027002A000000E0
:100080000000250028002B000404040404040404D8
:100090000202020202020303030303030102040833
:1000A00010204080010204081020010204081020E2
:1000B0000000000800020100000304070000000027
:1000C000000000008A07370A11241FBECFEFD8E0D6
:1000D000DEBFCDBF23E0A4E7B2E001C01D92A73987
:1000E000B207E1F712E0A0E0B1E0EAEDF2E202C00F
:1000F00005900D92A437B107D9F710E0C3E6D0E020
:1001000004C02197FE010E94670CC236D107C9F7CF
:100110000E9403080C9460110C940000AF92BF92EF
:10012000CF92DF92EF92FF920F931F93CF93DF93C3
:100130006C017B018B01040F151FEB015E01AE18F2
:10014000BF08C017D10759F06991D601ED91FC9114
:100150000190F081E02DC6010995892B79F7C50141
:10016000DF91CF911F910F91FF90EF90DF90CF9093
:10017000BF90AF900895FC01538D448D252F30E042
:10018000842F90E0821B930B541710F0CF960895A4
:1001900001970895FC01918D828D981761F0A28DD1
:1001A000AE0FBF2FB11D5D968C91928D9F5F9F7397
:1001B000928F90E008958FEF9FEF0895FC01918D4D
:1001C000828D981731F0828DE80FF11D858D90E0BA
:1001D00008958FEF9FEF0895FC01918D228D892F57
:1001E00090E0805C9F4F821B91098F73992708953F
:1001F00087EC92E00E94EC0021E0892B09F420E0DA
:10020000822F089580E090E0892B29F00E94F80069
:1002100081110C9400000895FC01A48DA80FB92F42
:10022000B11DA35ABF4F2C91848D90E001968F731E
:100230009927848FA689B7892C93A089B1898C913D
:10024000837080648C93938D848D981306C002888C
:10025000F389E02D80818F7D80830895EF92FF9256
:100260000F931F93CF93DF93EC0181E0888F9B8DD9
:100270008C8D98131AC0E889F989808185FF15C093
:100280009FB7F894EE89FF896083E889F9898081B6
:100290008370806480839FBF81E090E0DF91CF9185
:1002A0001F910F91FF90EF900895F62E0B8D10E0A7
:1002B0000F5F1F4F0F731127E02E8C8D8E110CC016
:1002C0000FB607FCFACFE889F989808185FFF5CF61
:1002D000CE010E940C01F1CFEB8DEC0FFD2FF11D33
:1002E000E35AFF4FF0829FB7F8940B8FEA89FB899E
:1002F00080818062CFCFCF93DF93EC01888D8823FC
:10030000B9F0AA89BB89E889F9898C9185FD03C078
:10031000808186FD0DC00FB607FCF7CF8C9185FF5D
:10032000F2CF808185FFEDCFCE010E940C01E9CF95
:10033000DF91CF91089590E0FC01E055FF4F2491AB
:10034000FC01E456FF4F3491FC01E857FF4FE49164
:10035000EE23C9F0222339F0233001F1A8F4213033
:1003600019F1223029F1F0E0EE0FFF1FE258FF4FA4
:10037000A591B4918FB7F894EC91611126C0309596
:100380003E233C938FBF08952730A9F02830C9F051
:10039000243049F7809180008F7D03C080918000D8
:1003A0008F7780938000DFCF84B58F7784BDDBCFDC
:1003B00084B58F7DFBCF8091B0008F778093B000A4
:1003C000D2CF8091B0008F7DF9CF3E2BDACFCF9383
:1003D000DF9390E0FC01E456FF4F249188579F4F34
:1003E000FC0184918823D1F090E0880F991FFC01D3
:1003F000EC58FF4FA591B491FC01E258FF4FC59115
:10040000D49161110EC09FB7F8948C91E22FE095C2
:100410008E238C932881E223E8839FBFDF91CF91C5
:1004200008958FB7F894EC91E22BEC938FBFF6CF41
:100430002FB7F8946091C3027091C4028091C502F5
:100440009091C6022FBF0895CF93DF93EC01E8810E
:10045000F9810480F581E02D309709F00995EE814E
:10046000FF81309709F00995EA81FB810190F081C5
:10047000E02D309709F009958A819B81909365035F
:10048000809364030E94180220916C0330916D03E5
:10049000A0916403B0916503E0916A03F0916B034E
:1004A00050E040E0421753076CF4C081D181CA1775
:1004B000DB0721F460877187828793874F5F5F4FE7
:1004C0007096F0CFDF91CF910895CF92DF92EF92A7
:1004D000FF92CF93DF939093BD028093BC02BC0147
:1004E000990F880B990B0E94500A20E030E040E2FF
:1004F00051E40E949D0B20E030E04FE753E40E945E
:100500008B0A0E940F0C6B01EB0161E089E00E94F5
:10051000E701209751F460E089E0DF91CF91FF90EF
:10052000EF90DF90CF900C949B01CF3FD10511F459
:1005300061E0F2CFE9EBF0E0E491E33049F140F41F
:10054000E130B1F0E230F9F0C038D1058CF7E3CFFB
:10055000E73041F1E83071F1E430B1F7809180008B
:10056000806280938000D0928B00C0928A0004C089
:1005700084B5806884BDC7BCDF91CF91FF90EF90B8
:10058000DF90CF90089584B5806284BDC8BCF4CF5D
:1005900080918000806880938000D0928900C09212
:1005A0008800EACF8091B00080688093B000C0924C
:1005B000B300E2CF8091B00080628093B000C0921F
:1005C000B400DACFFC0101900020E9F73197AF01C8
:1005D000481B590BBC0187EC92E00C948E008F9263
:1005E0009F92AF92BF920F931F93CF93DF93CDB79C
:1005F000DEB7A1970FB6F894DEBF0FBECDBF19A22C
:10060000423008F44AE08E010F5D1F4F842E912C7A
:10061000B12CA12CA50194010E94450CE62FB90133
:10062000CA01EA30F4F4E05DD801EE938D01232B8A
:10063000242B252B79F790E080E0109719F0CD015D
:100640000E94E202A1960FB6F894DEBF0FBECDBFA6
:10065000DF91CF911F910F91BF90AF909F908F909E
:100660000895E95CE1CFCF93DF930E94E202EC01B1
:100670008CE191E00E94E2028C0F9D1FDF91CF91EF
:1006800008958FE191E00E94330389E090E0909318
:1006900003018093020190E080E00E946502809156
:1006A000BC029091BD0260E0892B09F061E08CE012
:1006B0000C949B01CF92DF92EF92FF928BE291E03C
:1006C0000E9433030E9418026B017C0189E090E0D4
:1006D000909303018093020190E080E00E94650204
:1006E0008091B6029091B702A091B802B091B90280
:1006F000C816D906EA06FB0688F48C199D09AE09CE
:10070000BF098093B2029093B302A093B402B09356
:10071000B502FF90EF90DF90CF9008958091B002E6
:100720009091B10201969093B1028093B002F1CF03
:100730000C94E202CF92DF92EF92FF92CF93DF937D
:100740006C01990FEE08FF08F7FE1FC06DE287EC01
:1007500092E00E942E01EC0166277727CB016C19ED
:100760007D098E099F094AE00E94EF02C80FD91F38
:100770008CE191E00E94E2028C0F9D1FDF91CF91EE
:10078000FF90EF90DF90CF9008954AE0C701B60147
:100790000E94EF02EC01ECCF2F923F924F925F92BA
:1007A0006F927F928F929F92AF92BF92CF92DF9281
:1007B000EF92FF920F931F93CF93DF93CDB7DEB7E6
:1007C0002F970FB6F894DEBF0FBECDBF8E010F5F1F
:1007D0001F4F89E0D8011D928A95E9F71B861A867A
:1007E0001D861C861F861E8688E391E00E943303C7
:1007F00080E197E2A0E0B0E08093CB029093CC023E
:10080000A093CD02B093CE0289E090E090930301D3
:1008100080930201E4E7F2E08CE3DF011D928A9508
:10082000E9F786E491E00E94980390E080E00E945E
:100830009A0384E7A82E82E0B82EF12CE12C3E0129
:10084000BEE06B0E711C1E01ECE02E0E311C2E0161
:10085000FAE04F0E511C2AE0E216F104F9F481E0AF
:1008600090E090930301809302012F960FB6F894C5
:10087000DEBF0FBECDBFDF91CF911F910F91FF90D3
:10088000EF90DF90CF90BF90AF909F908F907F9030
:100890006F905F904F903F902F90089587EC92E07B
:1008A0000E94EC00892BB9F2D801E9E01D92EA958B
:1008B000E9F74801D12CC12C0E9418026093CF02A5
:1008C0007093D0028093D1029093D20287EC92E091
:1008D0000E94CA0097FF69C00E9418022091CF02AF
:1008E0003091D0024091D1025091D202621B730B21
:1008F000840B950B2091CB023091CC024091CD021C
:100900005091CE026217730784079507F8F2CD283D
:1009100009F05AC06FC02A853B85BCE3B29FC00175
:10092000B39F900D11242C853D85820F931F092EB6
:10093000000CAA0BBB0BF50180839183A283B383C8
:100940008E859F8595838483FFEFEF1AFF0A8BE5E1
:1009500091E00E9433038FE591E00E949803C80163
:100960000E94330388E691E00E9498038A859B8564
:100970000E949A038EE691E00E9498038C859D85E3
:100980000E949A0384E791E00E9498038E859F85D8
:100990000E949A0386E491E00E949803C7010E9496
:1009A0009A0326E0A20EB11C56CF8A30910509F4B5
:1009B000AECFD4018D934D01BFEFCB1ADB0AE8E037
:1009C000CE16D10409F078CF7F926F923F922F928A
:1009D0005F924F9222E531E03F932F931F930F9345
:1009E0000E94580E0FB6F894DEBF0FBECDBF03971E
:1009F00009F491CF8AE791E00E949803C8010E9410
:100A00003303EF2809F02BCF84E090E02ACF1F9327
:100A1000CF93DF93C091BA02D091BB0289E090E0FE
:100A2000909303018093020110E487EC92E00E940E
:100A3000EC00892BE9F410937C0080917A008064AB
:100A400080937A0080917A0086FDFCCF80917800B7
:100A5000909179009093BB028093BA02C817D9078E
:100A600021F30E949A03C091BA02D091BB02DDCF5C
:100A7000DF91CF911F9108958EE891E00E9433039A
:100A80000C9407058CE991E00E94330389E090E023
:100A900090930301809302011092B1021092B00270
:100AA0001092B2021092B3021092B4021092B502E8
:100AB0001092B6021092B7021092B8021092B902C8
:100AC0000C940705CF92DF92EF92FF92CF93809123
:100AD000020190910301099751F089EA91E00E9487
:100AE000330389E090E09093030180930201C6E014
:100AF0008091B0029091B1028A3091050CF01AC138
:100B0000C89FF001C99FF00D1124EC58FD4F808162
:100B10009181A281B381892B8A2B8B2B09F40AC185
:100B20008091B2029091B302A091B402B091B5024B
:100B3000892B8A2B8B2B09F487C084EB91E00E94D0
:100B400098038091B0029091B1020E949A0383ECC5
:100B500091E00E9498036091B2027091B30280917B
:100B6000B4029091B5024AE00E94EF028CE191E05C
:100B70000E94E20285ED91E00E9498038091B0020C
:100B80009091B102C89FF001C99FF00D1124EC585B
:100B9000FD4F848195810E949A030E941802C090A3
:100BA000B202D090B302E090B402F090B502DC0142
:100BB000CB018C0D9D1DAE1DBF1D8093B602909381
:100BC000B702A093B802B093B9021092B202109289
:100BD000B3021092B4021092B5028091B0029091CB
:100BE000B102C89FF001C99FF00D1124EC58FD4FD0
:100BF000848195818B30910510F40E94650287EC09
:100C000092E00E94EC00892B79F40E941802C090B7
:100C1000B602D090B702E090B802F090B9026C151D
:100C20007D058E059F0558F387EC92E00E94EC004D
:100C3000892B09F471C089EF91E0CF91FF90EF907B
:100C4000DF90CF900C9433038091B6029091B7025D
:100C5000A091B802B091B902892B8A2B8B2B09F095
:100C6000BCCF8FED91E00E9498038091B0029091EB
:100C7000B1020E949A038BEE91E00E94980380914A
:100C8000B0029091B102C89FF001C99FF00D1124EC
:100C9000EC58FD4F60817181828193814AE00E940E
:100CA000EF028CE191E00E94E20285ED91E00E946A
:100CB00098038091B0029091B102C89FF001C99F42
:100CC000F00D1124EC58FD4F848195810E949A0308
:100CD0000E9418026B017C018091B0029091B102D8
:100CE000C89FF001C99FF00D1124EC58FD4F2081E1
:100CF000318142815381A8EEB3E00E944C0BC60EB5
:100D0000D71EE81EF91EC092B602D092B702E0923A
:100D1000B802F092B90261CF8BE092E00E943303F7
:100D20008091B0029091B10201969093B1028093AC
:100D3000B002DECE8BE192E00E9433038AE090E0C5
:100D4000909303018093020190E080E0CF91FF90A7
:100D5000EF90DF90CF900C946502CF92DF92EF92EC
:100D6000FF920F931F93CF93DF937C018B016A0156
:100D7000C4E6D3E06C817D816F5F7F4F83E0660FB7
:100D8000771F8A95E1F78A819B810E94920D9B8350
:100D90008A832C813D81F90143E0EE0FFF1F4A95C4
:100DA000E1F7E80FF91FF182E08213830283D58215
:100DB000C482178216822F5F3F4F3D832C83DF91C1
:100DC000CF911F910F91FF90EF90DF90CF900895FA
:100DD0001F920F920FB60F9211242F933F934F93B0
:100DE0005F936F937F938F939F93AF93BF93EF9393
:100DF000FF9387EC92E00E940C01FF91EF91BF916D
:100E0000AF919F918F917F916F915F914F913F91A2
:100E10002F910F900FBE0F901F9018951F920F9259
:100E20000FB60F9211242F938F939F93EF93FF93FD
:100E3000E091D702F091D8028081E091DD02F0913B
:100E4000DE0282FD1BC090818091E0028F5F8F7374
:100E50002091E102821741F0E091E002F0E0E953D5
:100E6000FD4F958F8093E002FF91EF919F918F91BD
:100E70002F910F900FBE0F901F9018958081F4CF87
:100E80001F920F920FB60F9211242F933F938F93BF
:100E90009F93AF93BF938091C3029091C402A0919E
:100EA000C502B091C6023091C20223E0230F2D3754
:100EB00058F50196A11DB11D2093C2028093C30273
:100EC0009093C402A093C502B093C6028091BE0263
:100ED0009091BF02A091C002B091C1020196A11DE4
:100EE000B11D8093BE029093BF02A093C002B09345
:100EF000C102BF91AF919F918F913F912F910F9020
:100F00000FBE0F901F90189526E8230F0296A11D83
:100F1000B11DD2CFE7ECF2E01382128288EE93E0AB
:100F2000A0E0B0E084839583A683B7838EE091E050
:100F30009183808385EC90E09587848784EC90E0B2
:100F40009787868780EC90E0918B808B81EC90E096
:100F5000938B828B82EC90E0958B848B86EC90E077
:100F6000978B868B118E128E138E148EADE8B3E0A4
:100F700081E493E011969C938E9313961C921E929B
:100F8000129715961C921E921497E7E8F3E08CECEA
:100F900093E0918380831382128215821482E1E8A8
:100FA000F3E08CE395E091838083138212821582B3
:100FB0001482EBE7F3E082E495E09183808313826F
:100FC000128215821482E5E7F3E082E695E09183D0
:100FD00080831382128215821482EFE6F3E08AE5A1
:100FE00093E0918380831382128215821482E4E657
:100FF000F3E0B183A08313821282158214821186DA
:10100000108612860895CF93DF9300D01F92CDB73C
:10101000DEB7789484B5826084BD84B5816084BD78
:1010200085B5826085BD85B5816085BD80916E0086
:10103000816080936E0010928100809181008260B7
:1010400080938100809181008160809381008091F4
:1010500080008160809380008091B10084608093E3
:10106000B1008091B00081608093B00080917A00DF
:10107000846080937A0080917A00826080937A0005
:1010800080917A00816080937A0080917A008068F4
:1010900080937A001092C10061E089E00E94E7012C
:1010A00061E08CE00E94E70160E082E00E94E701DD
:1010B000E091D702F091D80282E08083E091D302E0
:1010C000F091D4021082E091D502F091D6028FEC1B
:1010D00080831092DF02E091DB02F091DC0286E077
:1010E0008083E091D902F091DA028081806180836F
:1010F000E091D902F091DA02808188608083E091EA
:10110000D902F091DA02808180688083E091D9026F
:10111000F091DA0280818F7D808350E040E067E8C3
:1011200073E08DE893E00E94AD0642E050E061E894
:1011300073E08DE893E00E94AD0644E050E06DE876
:1011400073E087E893E00E94AD0641E050E06BE772
:1011500073E087E893E00E94AD0645E050E065E764
:1011600073E08BE793E00E94AD0650E040E067E853
:1011700073E08BE793E00E94AD064AE050E06BE736
:1011800073E085E793E00E94AD0646E050E06FE62D
:1011900073E085E793E00E94AD0649E050E065E723
:1011A00073E0CB010E94AD0647E050E065E773E0D5
:1011B0008FE693E00E94AD0643E050E06DE873E0F7
:1011C00081E893E00E94AD068EE292E00E94330334
:1011D00080916E0381110DC081E080936E03E091D8
:1011E0006403F09165030190F081E02D309709F0E0
:1011F0000995E0916403F09165030280F381E02D8D
:10120000309709F0099510E000E0F12CE12C809175
:101210006C0390916D03E816F9060CF047C08091BD
:101220006A0390916B03800F911F9B838A83FC015B
:1012300020813181809164039091650328173907DB
:1012400081F480859185A285B385892B8A2B8B2B90
:1012500071F40E941802EA81FB816087718782879E
:101260009387FFEFEF1AFF0A005F1F4FD0CF0E9456
:101270001802EA81FB8180849184A284B384681976
:1012800079098A099B0984849584A684B7846815A2
:1012900079058A059B0528F3CF010E942402EA8183
:1012A000FB811086118612861386DBCF8BE392E0DA
:1012B0000E94330322E0222E312C37E0432E512CA2
:1012C00046E0642E712C55E0852E912C64E0A62E0C
:1012D000B12CEE24E394F12C99E0C92ED12C00E03E
:1012E00010E08091020190910301099781F587EC4C
:1012F00092E00E94EC00892B51F187EC92E00E9471
:10130000CA0089838FE492E00E949803698187EC88
:1013100092E00E942E018CE191E00E94E202E981BC
:10132000E156E83008F088C00E2E000CFF0BE556A1
:10133000F64F0C94670CA309F709FC09010A080A87
:101340000D0A120A170A109203011092020140912D
:1013500002015091030150930101409300018091DB
:101360006E03882329F1609168037091690380916D
:101370006403909165039B838A83809166039091B7
:10138000670330E020E02617370794F4FC01A081C2
:10139000B181EA81FB81AE17BF0709F054C0FC019F
:1013A000A481B5814A175B0709F04DC00E94240251
:1013B00080910201909103018930910509F44BC09D
:1013C00020910001309101018217930709F043C079
:1013D00080E692E00E94330387EC92E00E94EC00EA
:1013E000892BA9F187EC92E00E94CA00F5CFF09218
:1013F0000301E0920201ABCF30920301209202017F
:10140000A6CF83E090E090930301809302019FCFE9
:10141000B0920301A09202019ACF909203018092B0
:10142000020195CF709203016092020190CF509219
:101430000301409202018BCFE8E0F0E0F09303015A
:10144000E093020184CF2F5F3F4F08969CCFD0924C
:101450000301C09202010115110509F442CF0E9457
:10146000F800882309F435CF0E94000032CFCF93D3
:10147000DF93C4E6D3E08A819B810E94090D8E81AF
:101480009F81DF91CF910C94090D91110C94F80A72
:10149000803219F089508550C8F70895E89409C042
:1014A00097FB3EF490958095709561957F4F8F4F97
:1014B0009F4F9923A9F0F92F96E9BB279395F695AD
:1014C000879577956795B795F111F8CFFAF4BB0F2B
:1014D00011F460FF1BC06F5F7F4F8F4F9F4F16C08F
:1014E000882311F096E911C0772321F09EE8872F19
:1014F000762F05C0662371F096E8862F70E060E0D5
:101500002AF09A95660F771F881FDAF7880F96954D
:10151000879597F908950E949E0A0C94120B0E94D9
:10152000040B38F00E940B0B20F0952311F00C9463
:10153000FB0A0C94010B11240C94460B0E94230B04
:1015400070F3959FC1F3950F50E0551F629FF00116
:10155000729FBB27F00DB11D639FAA27F00DB11D2F
:10156000AA1F649F6627B00DA11D661F829F2227B8
:10157000B00DA11D621F739FB00DA11D621F839F3F
:10158000A00D611D221F749F3327A00D611D231F15
:10159000849F600D211D822F762F6A2F11249F5763
:1015A00050409AF0F1F088234AF0EE0FFF1FBB1F66
:1015B000661F771F881F91505040A9F79E3F510525
:1015C00080F00C94FB0A0C94460B5F3FE4F3983ECA
:1015D000D4F3869577956795B795F795E7959F5FCF
:1015E000C1F7FE2B880F911D9695879597F9089561
:1015F00099278827089597F99F6780E870E060E051
:1016000008959FEF80EC089500240A94161617069B
:1016100018060906089500240A94121613061406E3
:1016200005060895092E0394000C11F4882352F046
:10163000BB0F40F4BF2B11F460FF04C06F5F7F4FFE
:101640008F4F9F4F089557FD9058440F551F59F0E5
:101650005F3F71F04795880F97FB991F61F09F3F9F
:1016600079F087950895121613061406551FF2CFC8
:101670004695F1DF08C0161617061806991FF1CF18
:1016800086957105610508940895E894BB2766273F
:101690007727CB0197F908950E948E0BA59F900D97
:1016A000B49F900DA49F800D911D112408952F9239
:1016B0003F924F925F926F927F928F929F92AF92E2
:1016C000BF92CF92DF92EF92FF920F931F93CF932F
:1016D000DF93CDB7DEB7CA1BDB0B0FB6F894DEBFC6
:1016E0000FBECDBF09942A88398848885F846E84EC
:1016F0007D848C849B84AA84B984C884DF80EE8036
:10170000FD800C811B81AA81B981CE0FD11D0FB63E
:10171000F894DEBF0FBECDBFED010895A29FB001CA
:10172000B39FC001A39F700D811D1124911DB29F15
:10173000700D811D1124911D08950E94B10B0C9410
:10174000120B0E940B0B58F00E94040B40F029F47E
:101750005F3F29F00C94FB0A51110C94460B0C943A
:10176000010B0E94230B68F39923B1F3552391F3E6
:10177000951B550BBB27AA2762177307840738F000
:101780009F5F5F4F220F331F441FAA1FA9F335D05D
:101790000E2E3AF0E0E832D091505040E695001C11
:1017A000CAF72BD0FE2F29D0660F771F881FBB1FCB
:1017B000261737074807AB07B0E809F0BB0B802DA9
:1017C000BF01FF2793585F4F3AF09E3F510578F0D5
:1017D0000C94FB0A0C94460B5F3FE4F3983ED4F361
:1017E000869577956795B795F7959F5FC9F7880FA9
:1017F000911D9695879597F90895E1E0660F771FFB
:10180000881FBB1F621773078407BA0720F0621B8B
:10181000730B840BBA0BEE1F88F7E09508950E94B6
:10182000160C6894B1110C94460B08950E942B0B72
:1018300088F09F5798F0B92F9927B751B0F0E1F091
:10184000660F771F881F991F1AF0BA95C9F714C041
:10185000B13091F00E94450BB1E008950C94450B16
:10186000672F782F8827B85F39F0B93FCCF386957A
:1018700077956795B395D9F73EF4909580957095D7
:1018800061957F4F8F4F9F4F0895A1E21A2EAA1B9B
:10189000BB1BFD010DC0AA1FBB1FEE1FFF1FA21720
:1018A000B307E407F50720F0A21BB30BE40BF50B1D
:1018B000661F771F881F991F1A9469F760957095A6
:1018C000809590959B01AC01BD01CF010895EE0F6D
:1018D000FF1F0590F491E02D09940F931F93CF9370
:1018E000DF938230910510F482E090E0E09195035F
:1018F000F091960330E020E0B0E0A0E0309799F45A
:101900002115310509F44AC0281B390B2430310553
:10191000D8F58A819B816115710589F1FB0193835B
:101920008283FE0111C040815181028113814817D9
:101930005907E0F04817590799F4109761F012968B
:101940000C93129713961C933296CF01DF91CF918F
:101950001F910F9108950093950310939603F4CF70
:101960002115310551F04217530738F0A901DB0169
:101970009A01BD01DF01F801C1CFEF01F9CF9093CA
:10198000960380939503CDCFFE01E20FF31F819361
:1019900091932250310939832883D7CF2091930323
:1019A00030919403232B41F42091060130910701DB
:1019B0003093940320939303209104013091050107
:1019C0002115310541F42DB73EB7409108015091E2
:1019D0000901241B350BE0919303F0919403E21766
:1019E000F307A0F42E1B3F0B2817390778F0AC0142
:1019F0004E5F5F4F2417350748F04E0F5F1F50931F
:101A0000940340939303819391939FCFF0E0E0E0A0
:101A10009CCFCF93DF930097E9F0FC0132971382BC
:101A20001282A0919503B0919603ED0130E020E081
:101A30001097A1F420813181820F931F209193038D
:101A4000309194032817390709F061C0F09394038B
:101A5000E0939303DF91CF910895EA01CE17DF075A
:101A6000E8F54A815B819E0141155105B1F7E90115
:101A7000FB83EA8349915991C40FD51FEC17FD07E9
:101A800061F4808191810296840F951FE901998309
:101A90008883828193819B838A83F0E0E0E01296C1
:101AA0008D919C9113970097B9F52D913C911197C9
:101AB000CD010296820F931F2091930330919403DE
:101AC0002817390739F6309751F51092960310927E
:101AD0009503B0939403A0939303BCCFD383C283A5
:101AE00040815181840F951FC817D90761F44E5F5B
:101AF0005F4F88819981480F591F518340838A81A4
:101B00009B81938382832115310509F0B0CFF09337
:101B10009603E09395039ECFFD01DC01C0CF1382B5
:101B20001282D7CFB0E0A0E0E8E9FDE00C94590BB9
:101B30008C01009751F4CB010E946D0C8C01C801FF
:101B4000CDB7DEB7E0E10C94750BFC01E60FF71F93
:101B50009C0122503109E217F30708F49DC0D90116
:101B6000CD91DC911197C617D70798F0C530D105F4
:101B700030F3CE0104978617970708F3C61BD70BDF
:101B80002297C193D1936D937C93CF010E94090D4D
:101B9000D6CF5B01AC1ABD0A4C018C0E9D1EA091E4
:101BA0009503B0919603512C412CF12CE12C109708
:101BB00031F580919303909194038815990509F06C
:101BC0005CC04616570608F058C0809104019091F9
:101BD0000501009741F48DB79EB7409108015091DF
:101BE0000901841B950BE817F90708F055C0F0931D
:101BF0009403E0939303F90171836083A0CF8D91E7
:101C00009C91119712966C90129713967C90139753
:101C1000A815B90559F56C0142E0C40ED11CCA14CF
:101C2000DB0420F1AC014A195B09DA011296159721
:101C300080F06282738251834083D9016D937C93DB
:101C4000E114F10471F0D7011396FC93EE9312970F
:101C500076CF22968C0F9D1FF90191838083F3012B
:101C6000EFCFF0939603E093950369CF481659069A
:101C700008F42C017D01D3019ACFCB010E946D0C99
:101C80007C01009749F0AE01B8010E944F0EC801D7
:101C90000E94090D870153CF10E000E050CFFB01F7
:101CA000DC0102C001900D9241505040D8F70895D8
:101CB000AEE0B0E0EEE5FEE00C94670B85E08C83CF
:101CC0008B899C899A838983AE01495E5F4F6D89B8
:101CD0007E89CE0101960E94FC0F2E96E2E00C94C4
:101CE000830B20FD09C0FC0123FD05C022FF02C0BB
:101CF0007383628351834083089544FD17C046FD7A
:101D00001DC0DB01FC01AA0FBB1FEE1FFF1F1094BB
:101D1000D1F76A0F7B1F8E1F9F1F660F771F881FCB
:101D2000991F620F711D811D911D089533E0660F8B
:101D3000771F881F991F3150D1F7F3CF34E0F7CFC9
:101D40000F931F93CF93DF938C01C8010E940C1156
:101D5000EC0197FD08C00E94450A892BB1F7B80134
:101D6000CE010E944811CE01DF91CF911F910F91BA
:101D700008958F929F92AF92BF92EF92FF920F932E
:101D80001F93CF93DF938C01D62F7A01B22E0E943E
:101D90000C119C0133272B32310529F02D323105EE
:101DA000A9F46894B7F8D15061F480E0DF91CF9145
:101DB0001F910F91FF90EF90BF90AF909F908F90E9
:101DC0000895C8010E940C1197FDEFCFCB2DCD7F58
:101DD0002B2D2073F9F48033E9F4AA24AA94AD0ED4
:101DE00089F0C8010E940C1197FD0CC0282F2F7D8F
:101DF000283561F4C264D25029F0C8010E940C1148
:101E000097FF08C0812C912C54011BC0B6FE2BC03B
:101E1000C260DA2D812C912C540120ED280F28303E
:101E200028F1C4FD09C02A3008F1C6FF05C02F7D86
:101E30003FEE320F3630C8F0B8010E944811C1FFA2
:101E4000B4CFC7FF08C0B094A09490948094811C34
:101E5000911CA11CB11C2C2FB501A401C7010E942B
:101E6000710E81E0A3CFC261D4CF27504C2FC501A2
:101E7000B4010E947D0E4B015C01C260D15009F398
:101E8000C8010E940C1197FFC8CFD9CFA0E2B0E0E3
:101E9000ECE4FFE00C945C0B5C01962E7A01CE0121
:101EA00001966C0180E2F60111928A95E9F7F5013D
:101EB000B381890130E020E0712C812CA0E041E069
:101EC00050E0F801B3FD8591B3FF8191982F8F0108
:101ED000811107C010E000E0C801A096EDE00C946D
:101EE000780B8E3519F42115310541F1A21713062F
:101EF0004CF48D3549F18D3229F4811006C08824C7
:101F000083941DC0882009F464C0E92FE695E69506
:101F1000E695EC0DFD2DF11D892F8770BA0101C0EA
:101F2000660F8A95EAF78081682B6083791651F0F5
:101F3000971510F49F5FE9CF9150E7CFA1E02F5F95
:101F40003F4FBFCF812CFBCF882019F08E8180625C
:101F50008E83AA2359F0F6019E012F5D3F4F8081A9
:101F6000809580833196E217F307C9F7882483941C
:101F7000C5010E940C1197FD16C0E82FE695E69565
:101F8000E695EC0DFD2DF11D208130E0AC01477090
:101F9000552702C0359527954A95E2F720FD06C0E2
:101FA000B5010E944811882069F094CFE114F10432
:101FB00029F0F7018083C70101967C019A94812C56
:101FC0009110D6CFE114F10409F486CFF701108205
:101FD00083CFE82FE695E695E695EC0DFD2DF11DF6
:101FE000982F9770BA0101C0660F9A95EAF7908111
:101FF000692B6083782EA3CFB0E0A0E0E2E0F0E1AF
:102000000C945A0B6C01EB015A01FC0117821682E9
:10201000512CF601E380FE01E3FC8591E3FE819102
:10202000182FEF018823E9F090E00E94450A892BE0
:1020300021F0C6010E94A00EECCF153241F4FE0142
:10204000E3FC1591E3FE1191EF01153269F4C6012D
:102050000E940C1197FD8EC01817D9F2B6010E948C
:102060004811852D90E08AC000E01A3231F4E3FC7B
:102070001591E3FE1191EF0101E0F12C20ED210F0C
:102080002A3048F101FF37C0FF2059F31836B1F16B
:102090001C3609F43DC0112321F3612F70E088E65E
:1020A00090E00E940111892BE1F2912C812C00FD1E
:1020B00006C0F50180809180C50102965C011E3644
:1020C00079F5F6014681578170E060E0202FC40168
:1020D0000E94710E9ECF02606F2D70E090E080E054
:1020E00040E20E947D0EF62EFE01E3FC1591E3FE18
:1020F0001191EF01C3CFFF24FA94C8CFFE01E3FC96
:102100001591E3FE1191EF01183609F0C4CF086074
:102110000460FE01E3FC1591E3FE1191EF01BBCFDA
:102120001336C1F401FD02C0FF24F394C6010E94DE
:102130000C1197FD1FC08114910429F0F4018083D4
:10214000C40101964C01FA94F110F0CF00FD61CF6B
:1021500053945FCF1B35B9F49E01A4016F2DC601C6
:102160000E94460FEC01892B89F7F6018381807369
:1021700009F477CF8FEF9FEF511073CFCDB7DEB754
:10218000EFE00C94760BC6010E94A00E97FDF2CFF3
:102190001F36A9F130F4143641F0193639F00064D5
:1021A00005C01337B9F01537D1F70062202FA4010D
:1021B0006F2DC6010E94B90E8111C8CFD6CF8114F0
:1021C000910429F0F4016082C40101964C01FA9453
:1021D000FF2071F0C6010E940C113C0197FD08C060
:1021E0000E94450A892B59F3B601C3010E94481188
:1021F0008114910409F4AACFF4011082A7CF0061E1
:10220000D5CFFC010590061621F00020D9F7C001BA
:1022100008953197CF010895CF93DF93EC012B817F
:1022200020FF1AC026FF0CC02F7B2B838E819F813D
:1022300001969F838E838A8190E0DF91CF910895EC
:1022400022FF18C0E881F9818081082E000C990BCB
:10225000009729F420622B838FEF9FEFEECF31960A
:10226000F983E8832E813F812F5F3F4F3F832E8389
:102270009927E3CFEA85FB85099597FFF3CF2B815B
:10228000019621F080E2822B8B83E6CF80E1FBCFA9
:10229000FB01238120FF11C026FD0FC08F3F98074F
:1022A00071F082832F7D2064238326813781215022
:1022B000310937832683992708958FEF9FEF08957B
:1022C00010E0C3E6D0E004C0FE010E94670C219636
:0A22D000C436D107C9F7F894FFCF18
:1022DA0009000900000097038000000000002E0199
:1022EA008E00BB007B01EC00CA00DE000D0A005321
:1022FA00746174655F69646C652E005374617465FA
:10230A005F70617573652E0053746174655F6765EC
:10231A00747365742E00456E7465722073746570EB
:10232A003A0025643A25642325640041434B005250
:10233A00656164696E6720004D696E3A20005365D5
:10234A00633A200056656C3A2000446F6E6520722D
:10235A00656164696E672061667465723A005374D8
:10236A006174655F636F6E6669672E00537461748A
:10237A00655F72656164792E0053746174655F727A
:10238A00756E2E00436F6E74696E75652073746581
:10239A00703A0052656D61696E2074696D65202816
:1023AA006D73293A0056656C6F636974793A005304
:1023BA007461727420737465703A00447572617442
:1023CA00696F6E202873293A00436F6D6D616E64E0
:1023DA00207761732073656E742E005374657020C4
:1023EA00636F6D706C657465642E0050726F6772EE
:1023FA00616D20636F6D706C657465642E00536542
:10240A007475702072656164792E00456E74657208
:10241A00696E67206D61696E206C6F6F702E005255
:10242A0065636976656420636F6D6D616E643A00F9
:10243A00436F6D6D616E6420756E617474656E6450
:04244A0065642E0097
:00000001FF
