:100000000C9469000C9491000C9491000C94910054
:100010000C9491000C9491000C9491000C9491001C
:100020000C9491000C9491000C9491000C9491000C
:100030000C9491000C9491000C9491000C949100FC
:100040000C943B070C9491000C9409070C94E30664
:100050000C9491000C9491000C9491000C949100DC
:100060000C9491000C9491006364696E6F707375C9
:1000700078585B0000000000240027002A000000E0
:100080000000250028002B000000000023002600AF
:10009000290004040404040404040202020202020B
:1000A000030303030303010204081020408001023C
:1000B00004081020010204081020000000080002BB
:1000C0000100000304070000000000000000850795
:1000D0003F0A11241FBECFEFD8E0DEBFCDBF22E024
:1000E000A6E3B1E001C01D92AF35B207E1F711E020
:1000F000A0E0B1E0EAEEF2E202C005900D92A63374
:10010000B107D9F710E0C8E6D0E004C02197FE019E
:100110000E946F0CC736D107C9F70E9408080C94DB
:1001200068110C940000AF92BF92CF92DF92EF92D1
:10013000FF920F931F93CF93DF936C017B018B0191
:10014000040F151FEB015E01AE18BF08C017D107E1
:1001500059F06991D601ED91FC910190F081E02D6B
:10016000C6010995892B79F7C501DF91CF911F91C0
:100170000F91FF90EF90DF90CF90BF90AF900895D8
:10018000FC01538D448D252F30E0842F90E0821B9D
:10019000930B541710F0CF96089501970895FC0122
:1001A000918D828D981761F0A28DAE0FBF2FB11D7A
:1001B0005D968C91928D9F5F9F73928F90E00895D2
:1001C0008FEF9FEF0895FC01918D828D981731F08C
:1001D000828DE80FF11D858D90E008958FEF9FEFE0
:1001E0000895FC01918D228D892F90E0805C9F4FB6
:1001F000821B91098F739927089589E891E00E94E5
:10020000F10021E0892B09F420E0822F089580E09D
:1002100090E0892B29F00E94FD0081110C940000D0
:100220000895FC01A48DA80FB92FB11DA35ABF4F8B
:100230002C91848D90E001968F739927848FA689E5
:10024000B7892C93A089B1898C91837080648C9339
:10025000938D848D981306C00288F389E02D8081E8
:100260008F7D80830895EF92FF920F931F93CF931A
:10027000DF93EC0181E0888F9B8D8C8D98131AC0E1
:10028000E889F989808185FF15C09FB7F894EE89C8
:10029000FF896083E889F989808183708064808325
:1002A0009FBF81E090E0DF91CF911F910F91FF9070
:1002B000EF900895F62E0B8D10E00F5F1F4F0F7318
:1002C0001127E02E8C8D8E110CC00FB607FCFACFD3
:1002D000E889F989808185FFF5CFCE010E9411015F
:1002E000F1CFEB8DEC0FFD2FF11DE35AFF4FF082A4
:1002F0009FB7F8940B8FEA89FB8980818062CFCF0A
:10030000CF93DF93EC01888D8823B9F0AA89BB894C
:10031000E889F9898C9185FD03C0808186FD0DC037
:100320000FB607FCF7CF8C9185FFF2CF808185FF58
:10033000EDCFCE010E941101E9CFDF91CF91089559
:10034000833081F028F4813099F08230A9F008954B
:100350008730A9F08830C9F08430B1F480918000F2
:100360008F7D03C0809180008F77809380000895F7
:1003700084B58F7784BD089584B58F7DFBCF809140
:10038000B0008F778093B00008958091B0008F7D8A
:10039000F9CFCF93DF93282F30E0F901E654FF4FD8
:1003A0008491F901EA55FF4FD491F901EE56FF4FC0
:1003B000C491CC23A1F081110E94A001EC2FF0E0A8
:1003C000EE0FFF1FE857FF4FA591B491EC91ED237D
:1003D00081E090E009F480E0DF91CF91089580E022
:1003E00090E0FACF1F93CF93DF93282F30E0F901ED
:1003F000E654FF4F8491F901EA55FF4FD491F9017A
:10040000EE56FF4FC491CC23A9F0162F81110E9404
:10041000A001EC2FF0E0EE0FFF1FE258FF4FA59177
:10042000B4918FB7F894EC91111108C0D095DE23E8
:10043000DC938FBFDF91CF911F910895DE2BF8CF12
:10044000CF93DF9390E0FC01EA55FF4F24918E5645
:100450009F4FFC0184918823D1F090E0880F991F71
:10046000FC01EC58FF4FA591B491FC01E258FF4FFD
:10047000C591D49161110EC09FB7F8948C91E22F71
:10048000E0958E238C932881E223E8839FBFDF9140
:10049000CF9108958FB7F894EC91E22BEC938FBF36
:1004A000F6CF3FB7F8948091850190918601A09195
:1004B0008701B091880126B5A89B05C02F3F19F090
:1004C0000196A11DB11D3FBFBA2FA92F982F8827D4
:1004D000BC01CD01620F711D811D911D42E0660FAF
:1004E000771F881F991F4A95D1F708958F929F9281
:1004F000AF92BF92CF92DF92EF92FF924B015C01DD
:100500000E9451026B017C010E9451026C197D090D
:100510008E099F09683E734081059105A8F321E08B
:10052000821A9108A108B10888EEC80E83E0D81E8F
:10053000E11CF11C81149104A104B10429F7FF907E
:10054000EF90DF90CF90BF90AF909F908F900895E5
:100550002FB7F8946091810170918201809183019D
:10056000909184012FBF0895CF93DF93EC01E88130
:10057000F9810480F581E02D309709F00995EE812D
:10058000FF81309709F00995EA81FB810190F081A4
:10059000E02D309709F009958A819B81909327027D
:1005A000809326020E94A80220912E0230912F02F1
:1005B000A0912602B0912702E0912C02F0912D0229
:1005C00050E040E0421753076CF4C081D181CA1754
:1005D000DB0721F460877187828793874F5F5F4FC6
:1005E0007096F0CFDF91CF910895CF92DF92EF9286
:1005F000FF92CF93DF9390937F0180937E01BC01A4
:10060000990F880B990B0E94580A20E030E040E2D5
:1006100051E40E94A50B20E030E04FE753E40E9434
:10062000930A0E94170C6B01EB0161E086E00E94C7
:100630002002209751F460E086E0DF91CF91FF9097
:10064000EF90DF90CF900C94F201CF3FD10511F4E1
:1006500061E0F2CFE0ECF0E0E491E33049F140F406
:10066000E130B1F0E230F9F0C038D1058CF7E3CFDA
:10067000E73041F1E83071F1E430B1F7809180006A
:10068000806280938000D0928B00C0928A0004C068
:1006900084B5806884BDC7BCDF91CF91FF90EF9097
:1006A000DF90CF90089584B5806284BDC8BCF4CF3C
:1006B00080918000806880938000D0928900C092F1
:1006C0008800EACF8091B00080688093B000C0922B
:1006D000B300E2CF8091B00080628093B000C092FE
:1006E000B400DACFCF92DF92EF92FF920E94A8027D
:1006F0006B017C0189E090E09093010180930001FF
:1007000090E080E00E94F50280917801909179015B
:10071000A0917A01B0917B01C816D906EA06FB06C2
:1007200088F48C199D09AE09BF09809374019093D8
:100730007501A0937601B0937701FF90EF90DF9061
:10074000CF90089581E090E0A0E0B0E0EECF61E0CE
:1007500080917E0190917F01892B09F460E08CE00B
:100760000C94F20189E090E09093010180930001E4
:1007700090E080E00E94F5020C94A7032F923F9234
:100780004F925F926F927F928F929F92AF92BF92A1
:10079000CF92DF92EF92FF920F931F93CF93DF934D
:1007A000CDB7DEB72F970FB6F894DEBF0FBECDBF23
:1007B0009E012F5F3F4F790189E0D9011D928A95F3
:1007C000E9F71B861A861D861C861F861E8689E011
:1007D00090E09093010180930001E6E3F1E08CE367
:1007E000DF011D928A95E9F78F011E01B9E02B0EFA
:1007F000311C2E01EEE04E0E511C3E01FCE06F0E4E
:10080000711C5E012AE0A20EB11C8AE1882E81E0F3
:10081000982E89E891E00E94F1000897D4F3D7015F
:10082000E9E01D92EA95E9F767010E94A80260934A
:10083000910170939201809393019093940189E8C0
:1008400091E00E94CF0097FF79C00E94A8022091FA
:100850009101309192014091930150919401621B5A
:10086000730B840B950B20918D0130918E0140917B
:100870008F01509190016217730784079507F8F272
:100880005F924F927F926F92BF92AF929F928F92A0
:10089000FF92EF920E94600E0FB6F894DEBF0FBE7B
:1008A000CDBF039709F043C06A857B854C855D8584
:1008B0002E853F856115710531F44115510519F4F7
:1008C00021153105D9F0ACE3A69FC001A79F900D7B
:1008D0001124840F951F092E000CAA0BBB0BF801E5
:1008E00080839183A283B383358324830A5F1F4F60
:1008F00022E731E02017310709F08BCF2F960FB692
:10090000F894DEBF0FBECDBFDF91CF911F910F9145
:10091000FF90EF90DF90CF90BF90AF909F908F901F
:100920007F906F905F904F903F902F90089588E058
:1009300090E09093010180930001E0CFD6018D9368
:100940006D012A163B0609F070CF9ACFFC01019089
:100950000020E9F73197AF01481B590BBC0189E82A
:1009600091E00C9493008F929F92AF92BF92CF929E
:10097000DF92EF92FF921F93CF93DF93CDB7DEB755
:10098000A1970FB6F894DEBF0FBECDBFE0907C01FB
:10099000F0907D0189E090E0909301018093000147
:1009A00010E48AE0882E912CA12CB12C89E891E0EA
:1009B0000E94F100892B09F070C010937C00809197
:1009C0007A00806480937A0080917A0086FDFCCF63
:1009D000C0907800D0907900D0927D01C0927C01C7
:1009E000EC14FD0419F30D2C000CEE08FF08F7FEC3
:1009F0003EC06DE289E891E00E943301222733274F
:100A0000A9012C193D094E095F0919A2CE01819651
:100A10007C01CA01B901A50194010E944D0C605DE1
:100A2000F70162937F01211531054105510589F7D1
:100A3000E114F10419F0C7010E94A60483E291E0D9
:100A40000E94A604E0907C01F0907D018CE00E9461
:100A5000C90161E0892B09F060E08CE00E94F2019D
:100A600064EF71E080E090E00E9476029FCFA701E2
:100A7000960119A2CE0181967C01CA01B901A50196
:100A800094010E944D0C605DF70162937F01211576
:100A900031054105510589F7CBCF60E08CE00E941C
:100AA000F201A1960FB6F894DEBF0FBECDBFDF9165
:100AB000CF911F91FF90EF90DF90CF90BF90AF90BC
:100AC0009F908F9008950C94B30489E090E09093E8
:100AD0000101809300011092730110927201109233
:100AE00074011092750110927601109277011092A4
:100AF00078011092790110927A0110927B010C9486
:100B0000B304BF92CF92DF92EF92FF920F931F93A5
:100B1000CF93DF938091000190910101099751F0EB
:100B200089E090E0909301018093000161E08CE006
:100B30000E94F20186E0B82E0091720110917301BB
:100B40000A3011050CF0C1C0B09EE001B19ED00D7D
:100B50001124CA5CDE4F88819981AA81BB81892BCF
:100B60008A2B8B2B09F4B1C0C0907401D090750111
:100B7000E0907601F0907701C114D104E104F10412
:100B800009F459C00E94A802C60ED71EE81EF91E1D
:100B9000C0927801D0927901E0927A01F0927B01C3
:100BA00010927401109275011092760110927701E3
:100BB000B09EF001B19EF00D1124EA5CFE4F8481DD
:100BC00095818B30910510F40E94F5020E94A703D5
:100BD00084E00E94C9010197A9F089E891E00E9490
:100BE000F100892B79F40E94A802009178011091FC
:100BF000790120917A0130917B016017710782079A
:100C0000930730F384E00E94C9010197D1F590E089
:100C100080E00E94F5028BE090E0909301018093C8
:100C20000001DF91CF911F910F91FF90EF90DF9026
:100C3000CF90BF9008958091780190917901A09113
:100C40007A01B0917B01892B8A2B8B2B09F0B0CFD5
:100C50000E94A8026B017C01288139814A815B8155
:100C6000A8EEB3E00E94540BC60ED71EE81EF91E74
:100C7000C0927801D0927901E0927A01F0927B01E2
:100C800097CF89E891E00E94F100892B51F686E226
:100C900091E00E94A60480917201909173010196E7
:100CA00090937301809372011092740110927501F8
:100CB00010927601109277011092780110927901CA
:100CC00010927A0110927B0137CF90E080E00E9471
:100CD000F5028AE090E0909301018093000160E0CA
:100CE0008CE0DF91CF911F910F91FF90EF90DF90FB
:100CF000CF90BF900C94F20190E080E00E94F5024A
:100D00008BE291E00E94A6046AEF70E080E090E040
:100D10000E94760284E00E94C901019779F48CE078
:100D20000E94C90161E0892B09F060E08CE00E941B
:100D3000F20164E670E080E090E0EACF8CE090E0C1
:100D4000909301018093000180E391E00C94A6044C
:100D5000CF92DF92EF92FF920F931F93CF93DF9387
:100D60007C018B016A01C6E2D2E06C817D816F5FFC
:100D70007F4F83E0660F771F8A95E1F78A819B8119
:100D80000E949A0D9B838A832C813D81F90143E067
:100D9000EE0FFF1F4A95E1F7E80FF91FF182E0829D
:100DA00013830283D582C482178216822F5F3F4F3E
:100DB0003D832C83DF91CF911F910F91FF90EF9096
:100DC000DF90CF9008951F920F920FB60F921124CB
:100DD0002F933F934F935F936F937F938F939F9343
:100DE000AF93BF93EF93FF9389E891E00E941101C5
:100DF000FF91EF91BF91AF919F918F917F916F91F3
:100E00005F914F913F912F910F900FBE0F901F90C8
:100E100018951F920F920FB60F9211242F938F9354
:100E20009F93EF93FF93E0919901F0919A01808154
:100E3000E0919F01F091A00182FD1BC09081809103
:100E4000A2018F5F8F732091A301821741F0E0917F
:100E5000A201F0E0E757FE4F958F8093A201FF912A
:100E6000EF919F918F912F910F900FBE0F901F9038
:100E700018958081F4CF1F920F920FB60F92112414
:100E80002F933F938F939F93AF93BF938091810153
:100E900090918201A0918301B091840130918001F1
:100EA00023E0230F2D3758F50196A11DB11D209386
:100EB00080018093810190938201A0938301B0937C
:100EC00084018091850190918601A0918701B09164
:100ED00088010196A11DB11D809385019093860123
:100EE000A0938701B0938801BF91AF919F918F919B
:100EF0003F912F910F900FBE0F901F90189526E8ED
:100F0000230F0296A11DB11DD2CFE9E8F1E01382B3
:100F1000128288EE93E0A0E0B0E084839583A683FC
:100F2000B7838CE091E09183808385EC90E0958796
:100F3000848784EC90E09787868780EC90E0918BA3
:100F4000808B81EC90E0938B828B82EC90E0958B90
:100F5000848B86EC90E0978B868B118E128E138E8D
:100F6000148EA5E5B2E082EB93E011969C938E93EC
:100F700013961C921E92129715961C921E9214970D
:100F8000EFE4F2E08EEB93E0918380831382128290
:100F900015821482E9E4F2E083E695E09183808390
:100FA0001382128215821482E3E4F2E085E695E072
:100FB000918380831382128215821482EDE3F2E022
:100FC00081E895E0918380831382128215821482D6
:100FD000E7E3F2E082E793E0918380831382128259
:100FE00015821482E1E3F2E08CE796E0918380833E
:100FF0001382128215821482E6E2F2E0B183A083AA
:101000001382128215821482118610861286089528
:10101000CF93DF9300D0CDB7DEB7789484B58260EC
:1010200084BD84B5816084BD85B5826085BD85B58C
:10103000816085BD80916E00816080936E0010920A
:101040008100809181008260809381008091810085
:101050008160809381008091800081608093800016
:101060008091B10084608093B1008091B000816074
:101070008093B00080917A00846080937A008091A0
:101080007A00826080937A0080917A0081608093F8
:101090007A0080917A00806880937A001092C10073
:1010A00061E086E00E94200261E08CE00E94200264
:1010B00060E084E00E942002E0919901F0919A01A1
:1010C00082E08083E0919501F09196011082E09199
:1010D0009701F09198018FEC80831092A101E0912B
:1010E0009D01F0919E0186E08083E0919B01F0914B
:1010F0009C01808180618083E0919B01F0919C0143
:10110000808188608083E0919B01F0919C018081C7
:1011100080688083E0919B01F0919C0180818F7DAC
:10112000808350E040E06FE472E085E592E00E9449
:10113000A80642E050E069E472E085E592E00E9492
:10114000A80644E050E065E572E08FE492E00E947A
:10115000A80641E050E063E472E08FE492E00E9470
:10116000A80645E050E06DE372E083E492E00E945F
:10117000A80650E040E06FE472E083E492E00E9451
:10118000A80644E050E065E572E083E492E00E9446
:10119000A8064AE050E065E572E08DE392E00E9427
:1011A000A80644E050E065E572E08DE392E00E941D
:1011B000A80646E050E067E372E08DE392E00E940B
:1011C000A80649E050E06DE372E0CB010E94A8065A
:1011D0004BE050E061E372E08DE392E00E94A806EC
:1011E0004CE050E065E572E081E392E00E94A806E1
:1011F00047E050E06DE372E087E392E00E94A806CA
:1012000043E050E065E572E089E492E00E94A806C0
:101210008091300281110DC081E080933002E09115
:101220002602F09127020190F081E02D309709F01D
:101230000995E0912602F09127020280F381E02DCA
:10124000309709F0099510E000E0F12CE12C809135
:101250002E0290912F02E816F9060CF439C097E09F
:10126000292E312C26E0422E512C35E0632E712C94
:1012700044E0842E912C53E0A52EB12C01E010E027
:1012800089E0C82ED12C809100019091010109972D
:1012900009F069C089E891E00E94F100892B09F406
:1012A00062C089E891E00E94CF00815691098830A0
:1012B000910508F0C8C0FC01E05AF64F0C946F0C81
:1012C000AF09FE09030A0A0A0F0A140A190A1E0ABC
:1012D00080912C0290912D02800F911F9A83898317
:1012E000FC012081318180912602909127022817EC
:1012F000390781F480859185A285B385892B8A2B56
:101300008B2B71F40E94A802E981FA8160877187B2
:1013100082879387FFEFEF1AFF0A005F1F4F97CF77
:101320000E94A802E981FA8180849184A284B38416
:10133000681979098A099B0984849584A684B784ED
:10134000681579058A059B0528F3CF010E94B40230
:10135000E981FA811086118612861386DBCF1092FE
:10136000010110920001E0900001F0900101409114
:1013700000015091010180913002882329F1609190
:101380002A0270912B0280912602909127029A8363
:101390008983809128029091290230E020E026176D
:1013A000370794F4FC01A081B181E981FA81AE177D
:1013B000BF0709F04FC0FC01A481B5814A175B0744
:1013C00009F048C00E94B40280910001909101018F
:1013D000099709F447C08091000190910101E81636
:1013E000F90609F03FC089E891E00E94F100892BDD
:1013F000A9F189E891E00E94CF00F5CF1093010197
:1014000000930001B0CF82E090E0909301018093BF
:101410000001A9CFB0920101A0920001A4CF909247
:101420000101809200019FCF709201016092000142
:101430009ACF509201014092000195CF3092010164
:101440002092000190CFE8E0F0E0F0930101E093FA
:10145000000189CF2F5F3F4F0896A1CFD0920101A5
:10146000C092000180E090E0892B09F40CCF0E942B
:10147000FD00882309F402CF0E940000FFCECF9325
:10148000DF93C6E2D2E08A819B810E94110D8E819A
:101490009F81DF91CF910C94110D91110C94000B51
:1014A000803219F089508550C8F70895E89409C032
:1014B00097FB3EF490958095709561957F4F8F4F87
:1014C0009F4F9923A9F0F92F96E9BB279395F6959D
:1014D000879577956795B795F111F8CFFAF4BB0F1B
:1014E00011F460FF1BC06F5F7F4F8F4F9F4F16C07F
:1014F000882311F096E911C0772321F09EE8872F09
:10150000762F05C0662371F096E8862F70E060E0C4
:101510002AF09A95660F771F881FDAF7880F96953D
:10152000879597F908950E94A60A0C941A0B0E94B9
:101530000C0B38F00E94130B20F0952311F00C9443
:10154000030B0C94090B11240C944E0B0E942B0BD3
:1015500070F3959FC1F3950F50E0551F629FF00106
:10156000729FBB27F00DB11D639FAA27F00DB11D1F
:10157000AA1F649F6627B00DA11D661F829F2227A8
:10158000B00DA11D621F739FB00DA11D621F839F2F
:10159000A00D611D221F749F3327A00D611D231F05
:1015A000849F600D211D822F762F6A2F11249F5753
:1015B00050409AF0F1F088234AF0EE0FFF1FBB1F56
:1015C000661F771F881F91505040A9F79E3F510515
:1015D00080F00C94030B0C944E0B5F3FE4F3983EA9
:1015E000D4F3869577956795B795F795E7959F5FBF
:1015F000C1F7FE2B880F911D9695879597F9089551
:1016000099278827089597F99F6780E870E060E040
:1016100008959FEF80EC089500240A94161617068B
:1016200018060906089500240A94121613061406D3
:1016300005060895092E0394000C11F4882352F036
:10164000BB0F40F4BF2B11F460FF04C06F5F7F4FEE
:101650008F4F9F4F089557FD9058440F551F59F0D5
:101660005F3F71F04795880F97FB991F61F09F3F8F
:1016700079F087950895121613061406551FF2CFB8
:101680004695F1DF08C0161617061806991FF1CF08
:1016900086957105610508940895E894BB2766272F
:1016A0007727CB0197F908950E94960BA59F900D7F
:1016B000B49F900DA49F800D911D112408952F9229
:1016C0003F924F925F926F927F928F929F92AF92D2
:1016D000BF92CF92DF92EF92FF920F931F93CF931F
:1016E000DF93CDB7DEB7CA1BDB0B0FB6F894DEBFB6
:1016F0000FBECDBF09942A88398848885F846E84DC
:101700007D848C849B84AA84B984C884DF80EE8025
:10171000FD800C811B81AA81B981CE0FD11D0FB62E
:10172000F894DEBF0FBECDBFED010895A29FB001BA
:10173000B39FC001A39F700D811D1124911DB29F05
:10174000700D811D1124911D08950E94B90B0C94F8
:101750001A0B0E94130B58F00E940C0B40F029F456
:101760005F3F29F00C94030B51110C944E0B0C9419
:10177000090B0E942B0B68F39923B1F3552391F3C6
:10178000951B550BBB27AA2762177307840738F0F0
:101790009F5F5F4F220F331F441FAA1FA9F335D04D
:1017A0000E2E3AF0E0E832D091505040E695001C01
:1017B000CAF72BD0FE2F29D0660F771F881FBB1FBB
:1017C000261737074807AB07B0E809F0BB0B802D99
:1017D000BF01FF2793585F4F3AF09E3F510578F0C5
:1017E0000C94030B0C944E0B5F3FE4F3983ED4F340
:1017F000869577956795B795F7959F5FC9F7880F99
:10180000911D9695879597F90895E1E0660F771FEA
:10181000881FBB1F621773078407BA0720F0621B7B
:10182000730B840BBA0BEE1F88F7E09508950E94A6
:101830001E0C6894B1110C944E0B08950E94330B4A
:1018400088F09F5798F0B92F9927B751B0F0E1F081
:10185000660F771F881F991F1AF0BA95C9F714C031
:10186000B13091F00E944D0BB1E008950C944D0BF6
:10187000672F782F8827B85F39F0B93FCCF386956A
:1018800077956795B395D9F73EF4909580957095C7
:1018900061957F4F8F4F9F4F0895A1E21A2EAA1B8B
:1018A000BB1BFD010DC0AA1FBB1FEE1FFF1FA21710
:1018B000B307E407F50720F0A21BB30BE40BF50B0D
:1018C000661F771F881F991F1A9469F76095709596
:1018D000809590959B01AC01BD01CF010895EE0F5D
:1018E000FF1F0590F491E02D09940F931F93CF9360
:1018F000DF938230910510F482E090E0E0915D0288
:10190000F0915E0230E020E0B0E0A0E0309799F482
:101910002115310509F44AC0281B390B2430310543
:10192000D8F58A819B816115710589F1FB0193834B
:101930008283FE0111C040815181028113814817C9
:101940005907E0F04817590799F4109761F012967B
:101950000C93129713961C933296CF01DF91CF917F
:101960001F910F91089500935D0210935E02F4CFD2
:101970002115310551F04217530738F0A901DB0159
:101980009A01BD01DF01F801C1CFEF01F9CF9093BA
:101990005E0280935D02CDCFFE01E20FF31F8193C3
:1019A00091932250310939832883D7CF20915B024C
:1019B00030915C02232B41F4209104013091050108
:1019C00030935C0220935B0220910201309103016D
:1019D0002115310541F42DB73EB7409106015091D4
:1019E0000701241B350BE0915B02F0915C02E217CA
:1019F000F307A0F42E1B3F0B2817390778F0AC0132
:101A00004E5F5F4F2417350748F04E0F5F1F50930E
:101A10005C0240935B02819391939FCFF0E0E0E002
:101A20009CCFCF93DF930097E9F0FC0132971382AC
:101A30001282A0915D02B0915E02ED0130E020E0E3
:101A40001097A1F420813181820F931F20915B02B6
:101A500030915C022817390709F061C0F0935C02ED
:101A6000E0935B02DF91CF910895EA01CE17DF0783
:101A7000E8F54A815B819E0141155105B1F7E90105
:101A8000FB83EA8349915991C40FD51FEC17FD07D9
:101A900061F4808191810296840F951FE9019983F9
:101AA0008883828193819B838A83F0E0E0E01296B1
:101AB0008D919C9113970097B9F52D913C911197B9
:101AC000CD010296820F931F20915B0230915C0240
:101AD0002817390739F6309751F510925E021092A7
:101AE0005D02B0935C02A0935B02BCCFD383C28340
:101AF00040815181840F951FC817D90761F44E5F4B
:101B00005F4F88819981480F591F518340838A8193
:101B10009B81938382832115310509F0B0CFF09327
:101B20005E02E0935D029ECFFD01DC01C0CF138217
:101B30001282D7CFB0E0A0E0E0EAFDE00C94610BA8
:101B40008C01009751F4CB010E94750C8C01C801E7
:101B5000CDB7DEB7E0E10C947D0BFC01E60FF71F7B
:101B60009C0122503109E217F30708F49DC0D90106
:101B7000CD91DC911197C617D70798F0C530D105E4
:101B800030F3CE0104978617970708F3C61BD70BCF
:101B90002297C193D1936D937C93CF010E94110D35
:101BA000D6CF5B01AC1ABD0A4C018C0E9D1EA091D4
:101BB0005D02B0915E02512C412CF12CE12C10976A
:101BC00031F580915B0290915C028815990509F0CE
:101BD0005CC04616570608F058C0809102019091EB
:101BE0000301009741F48DB79EB7409106015091D3
:101BF0000701841B950BE817F90708F055C0F0930F
:101C00005C02E0935B02F90171836083A0CF8D9148
:101C10009C91119712966C90129713967C90139743
:101C2000A815B90559F56C0142E0C40ED11CCA14BF
:101C3000DB0420F1AC014A195B09DA011296159711
:101C400080F06282738251834083D9016D937C93CB
:101C5000E114F10471F0D7011396FC93EE931297FF
:101C600076CF22968C0F9D1FF90191838083F3011B
:101C7000EFCFF0935E02E0935D0269CF48165906FC
:101C800008F42C017D01D3019ACFCB010E94750C81
:101C90007C01009749F0AE01B8010E94570EC801BF
:101CA0000E94110D870153CF10E000E050CFFB01DF
:101CB000DC0102C001900D9241505040D8F70895C8
:101CC000AEE0B0E0E6E6FEE00C946F0B85E08C83BE
:101CD0008B899C899A838983AE01495E5F4F6D89A8
:101CE0007E89CE0101960E9404102E96E2E00C94AB
:101CF0008B0B20FD09C0FC0123FD05C022FF02C0A3
:101D00007383628351834083089544FD17C046FD69
:101D10001DC0DB01FC01AA0FBB1FEE1FFF1F1094AB
:101D2000D1F76A0F7B1F8E1F9F1F660F771F881FBB
:101D3000991F620F711D811D911D089533E0660F7B
:101D4000771F881F991F3150D1F7F3CF34E0F7CFB9
:101D50000F931F93CF93DF938C01C8010E9414113E
:101D6000EC0197FD08C00E944D0A892BB1F7B8011C
:101D7000CE010E945011CE01DF91CF911F910F91A2
:101D800008958F929F92AF92BF92EF92FF920F931E
:101D90001F93CF93DF938C01D62F7A01B22E0E942E
:101DA00014119C0133272B32310529F02D323105D6
:101DB000A9F46894B7F8D15061F480E0DF91CF9135
:101DC0001F910F91FF90EF90BF90AF909F908F90D9
:101DD0000895C8010E94141197FDEFCFCB2DCD7F40
:101DE0002B2D2073F9F48033E9F4AA24AA94AD0EC4
:101DF00089F0C8010E94141197FD0CC0282F2F7D77
:101E0000283561F4C264D25029F0C8010E9414112F
:101E100097FF08C0812C912C54011BC0B6FE2BC02B
:101E2000C260DA2D812C912C540120ED280F28302E
:101E300028F1C4FD09C02A3008F1C6FF05C02F7D76
:101E40003FEE320F3630C8F0B8010E945011C1FF8A
:101E5000B4CFC7FF08C0B094A09490948094811C24
:101E6000911CA11CB11C2C2FB501A401C7010E941B
:101E7000790E81E0A3CFC261D4CF27504C2FC5018A
:101E8000B4010E94850E4B015C01C260D15009F380
:101E9000C8010E94141197FFC8CFD9CFA0E2B0E0CB
:101EA000E4E5FFE00C94640B5C01962E7A01CE0110
:101EB00001966C0180E2F60111928A95E9F7F5012D
:101EC000B381890130E020E0712C812CA0E041E059
:101ED00050E0F801B3FD8591B3FF8191982F8F01F8
:101EE000811107C010E000E0C801A096EDE00C945D
:101EF000800B8E3519F42115310541F1A217130617
:101F00004CF48D3549F18D3229F4811006C08824B6
:101F100083941DC0882009F464C0E92FE695E695F6
:101F2000E695EC0DFD2DF11D892F8770BA0101C0DA
:101F3000660F8A95EAF78081682B6083791651F0E5
:101F4000971510F49F5FE9CF9150E7CFA1E02F5F85
:101F50003F4FBFCF812CFBCF882019F08E8180624C
:101F60008E83AA2359F0F6019E012F5D3F4F808199
:101F7000809580833196E217F307C9F7882483940C
:101F8000C5010E94141197FD16C0E82FE695E6954D
:101F9000E695EC0DFD2DF11D208130E0AC01477080
:101FA000552702C0359527954A95E2F720FD06C0D2
:101FB000B5010E945011882069F094CFE114F1041A
:101FC00029F0F7018083C70101967C019A94812C46
:101FD0009110D6CFE114F10409F486CFF7011082F5
:101FE00083CFE82FE695E695E695EC0DFD2DF11DE6
:101FF000982F9770BA0101C0660F9A95EAF7908101
:10200000692B6083782EA3CFB0E0A0E0EAE0F0E196
:102010000C94620B6C01EB015A01FC0117821682D1
:10202000512CF601E380FE01E3FC8591E3FE8191F2
:10203000182FEF018823E9F090E00E944D0A892BC8
:1020400021F0C6010E94A80EECCF153241F4FE012A
:10205000E3FC1591E3FE1191EF01153269F4C6011D
:102060000E94141197FD8EC01817D9F2B6010E9474
:102070005011852D90E08AC000E01A3231F4E3FC63
:102080001591E3FE1191EF0101E0F12C20ED210FFC
:102090002A3048F101FF37C0FF2059F31836B1F15B
:1020A0001C3609F43DC0112321F3612F70E088E64E
:1020B00090E00E940911892BE1F2912C812C00FD06
:1020C00006C0F50180809180C50102965C011E3634
:1020D00079F5F6014681578170E060E0202FC40158
:1020E0000E94790E9ECF02606F2D70E090E080E03C
:1020F00040E20E94850EF62EFE01E3FC1591E3FE00
:102100001191EF01C3CFFF24FA94C8CFFE01E3FC85
:102110001591E3FE1191EF01183609F0C4CF086064
:102120000460FE01E3FC1591E3FE1191EF01BBCFCA
:102130001336C1F401FD02C0FF24F394C6010E94CE
:10214000141197FD1FC08114910429F0F4018083BC
:10215000C40101964C01FA94F110F0CF00FD61CF5B
:1021600053945FCF1B35B9F49E01A4016F2DC601B6
:102170000E944E0FEC01892B89F7F6018381807351
:1021800009F477CF8FEF9FEF511073CFCDB7DEB744
:10219000EFE00C947E0BC6010E94A80E97FDF2CFD3
:1021A0001F36A9F130F4143641F0193639F00064C5
:1021B00005C01337B9F01537D1F70062202FA401FD
:1021C0006F2DC6010E94C10E8111C8CFD6CF8114D8
:1021D000910429F0F4016082C40101964C01FA9443
:1021E000FF2071F0C6010E9414113C0197FD08C048
:1021F0000E944D0A892B59F3B601C3010E94501168
:102200008114910409F4AACFF4011082A7CF0061D0
:10221000D5CFFC010590061621F00020D9F7C001AA
:1022200008953197CF010895CF93DF93EC012B816F
:1022300020FF1AC026FF0CC02F7B2B838E819F812D
:1022400001969F838E838A8190E0DF91CF910895DC
:1022500022FF18C0E881F9818081082E000C990BBB
:10226000009729F420622B838FEF9FEFEECF3196FA
:10227000F983E8832E813F812F5F3F4F3F832E8379
:102280009927E3CFEA85FB85099597FFF3CF2B814B
:10229000019621F080E2822B8B83E6CF80E1FBCF99
:1022A000FB01238120FF11C026FD0FC08F3F98073F
:1022B00071F082832F7D2064238326813781215012
:1022C000310937832683992708958FEF9FEF08956B
:1022D00010E0C8E6D0E004C0FE010E946F0C219619
:0A22E000C936D107C9F7F894FFCF03
:1022EA00090000005F028000000000003301930033
:1022FA00C0008001F100CF00E30025643A25642381
:10230A002564000D0A00535445500053544F5000A1
:06231A00494E4954000089
:00000001FF
