:100000000C9464000C948C000C948C000C948C0068
:100010000C948C000C948C000C948C000C948C0030
:100020000C948C000C948C000C948C000C948C0020
:100030000C948C000C948C000C948C000C948C0010
:100040000C94F6050C948C000C94C4050C949E053D
:100050000C948C000C948C000C948C000C948C00F0
:100060000C948C000C948C006364696E6F707375D3
:1000700078585B0000000000240027002A000000E0
:100080000000250028002B000404040404040404D8
:100090000202020202020303030303030102040833
:1000A00010204080010204081020010204081020E2
:1000B0000000000800020100000304070000000027
:1000C000000000004006630811241FBECFEFD8E0F7
:1000D000DEBFCDBF22E0A0E9B1E001C01D92AF3983
:1000E000B207E1F711E0A0E0B1E0EEEFFEE102C0FF
:1000F00005900D92A039B107D9F710E0C3E6D0E022
:1001000004C02197FE010E94790AC236D107C9F7BF
:100110000E94B9060C94720F0C940000AF92BF922B
:10012000CF92DF92EF92FF920F931F93CF93DF93C3
:100130006C017B018B01040F151FEB015E01AE18F2
:10014000BF08C017D10759F06991D601ED91FC9114
:100150000190F081E02DC6010995892B79F7C50141
:10016000DF91CF911F910F91FF90EF90DF90CF9093
:10017000BF90AF900895FC01538D448D252F30E042
:10018000842F90E0821B930B541710F0CF960895A4
:1001900001970895FC01918D828D981761F0A28DD1
:1001A000AE0FBF2FB11D5D968C91928D9F5F9F7397
:1001B000928F90E008958FEF9FEF0895FC01918D4D
:1001C000828D981731F0828DE80FF11D858D90E0BA
:1001D00008958FEF9FEF0895FC01918D228D892F57
:1001E00090E0805C9F4F821B91098F73992708953F
:1001F0008FEC91E00E94EC0021E0892B09F420E0D3
:10020000822F089580E090E0892B29F00E94F80069
:1002100081110C9400000895FC01A48DA80FB92F42
:10022000B11DA35ABF4F2C91848D90E001968F731E
:100230009927848FA689B7892C93A089B1898C913D
:10024000837080648C93938D848D981306C002888C
:10025000F389E02D80818F7D80830895EF92FF9256
:100260000F931F93CF93DF93EC0181E0888F9B8DD9
:100270008C8D98131AC0E889F989808185FF15C093
:100280009FB7F894EE89FF896083E889F9898081B6
:100290008370806480839FBF81E090E0DF91CF9185
:1002A0001F910F91FF90EF900895F62E0B8D10E0A7
:1002B0000F5F1F4F0F731127E02E8C8D8E110CC016
:1002C0000FB607FCFACFE889F989808185FFF5CF61
:1002D000CE010E940C01F1CFEB8DEC0FFD2FF11D33
:1002E000E35AFF4FF0829FB7F8940B8FEA89FB899E
:1002F00080818062CFCFCF93DF93EC01888D8823FC
:10030000B9F0AA89BB89E889F9898C9185FD03C078
:10031000808186FD0DC00FB607FCF7CF8C9185FF5D
:10032000F2CF808185FFEDCFCE010E940C01E9CF95
:10033000DF91CF91089590E0FC01E055FF4F2491AB
:10034000FC01E456FF4F3491FC01E857FF4FE49164
:10035000EE23C9F0222339F0233001F1A8F4213033
:1003600019F1223029F1F0E0EE0FFF1FE258FF4FA4
:10037000A591B4918FB7F894EC91611126C0309596
:100380003E233C938FBF08952730A9F02830C9F051
:10039000243049F7809180008F7D03C080918000D8
:1003A0008F7780938000DFCF84B58F7784BDDBCFDC
:1003B00084B58F7DFBCF8091B0008F778093B000A4
:1003C000D2CF8091B0008F7DF9CF3E2BDACFCF9383
:1003D000DF9390E0FC01E456FF4F249188579F4F34
:1003E000FC0184918823D1F090E0880F991FFC01D3
:1003F000EC58FF4FA591B491FC01E258FF4FC59115
:10040000D49161110EC09FB7F8948C91E22FE095C2
:100410008E238C932881E223E8839FBFDF91CF91C5
:1004200008958FB7F894EC91E22BEC938FBFF6CF41
:10043000CF93DF93EC0161E089E00E94E701209710
:1004400031F460E089E0DF91CF910C949B01CF3FC4
:10045000D10511F461E0F6CFE9EBF0E0E491E3308F
:1004600029F140F4E130B1F0E230D9F0C038D105E3
:100470008CF7E7CFE73021F1E83051F1E430B1F704
:1004800080918000806280938000D0938B00C09325
:100490008A0004C084B5806884BDC7BDDF91CF9158
:1004A000089584B5806284BDC8BDF8CF8091800076
:1004B000806880938000D0938900C0938800EECF3D
:1004C0008091B00080688093B000C093B300E6CF05
:1004D0008091B00080628093B000C093B400DECF02
:1004E0002FB7F8946091CB017091CC018091CD0130
:1004F0009091CE012FBF0895FC0101900020E9F7F3
:100500003197AF01481B590BBC018FEC91E00C9463
:100510008E00CF93DF930E947C02EC018AE191E090
:100520000E947C028C0F9D1FDF91CF9108958DE179
:1005300091E00E94890289E090E09093010180930C
:1005400000011092BB011092BA0190E080E00E947D
:10055000180260E08CE00C949B012F923F924F9226
:100560005F926F927F928F929F92AF92BF92CF9243
:10057000DF92EF92FF920F931F93CF93DF93CDB74C
:10058000DEB72F970FB6F894DEBF0FBECDBF9E012A
:100590002F5F3F4F590189E0F90111928A95E9F7E0
:1005A0001B861A861D861C861F861E8689E291E0A0
:1005B0000E94890289E090E09093010180930001FC
:1005C00082E9C82E81E0D82E8AEB91E0F6011182F3
:1005D00010821382128234968E179F07C1F710E0A3
:1005E00000E03E01FEE06F0E711C1E012CE0220EA9
:1005F000311C2E013AE0430E511C0A301105F9F46A
:1006000081E090E090930101809300012F960FB656
:10061000F894DEBF0FBECDBFDF91CF911F910F9138
:10062000FF90EF90DF90CF90BF90AF909F908F9012
:100630007F906F905F904F903F902F9008958FEC38
:1006400091E00E94EC00892BC1F24501F12CE12CD4
:100650000E9470026093D7017093D8018093D901F2
:100660009093DA018FEC91E00E94CA0097FF3BC0A3
:100670000E9470022091D7013091D8014091D90198
:100680005091DA01621B730B840B950B2091D301FF
:100690003091D4014091D5015091D6016217730772
:1006A00084079507F8F2EF2861F541C02A853B855C
:1006B0004CE3429FC001439F900D11242C853D8542
:1006C000820F931FF601918380838E859F8593838C
:1006D00082830F5F1F4F80E491E00E948902F4E063
:1006E000CF0ED11C8ACF8A309105E9F2F4018193B3
:1006F0004F01FFEFEF1AFF0A28E0E216F10409F0BC
:10070000A7CF7F926F923F922F925F924F9287E393
:1007100091E09F938F93BF92AF920E946A0C0FB6A5
:10072000F894DEBF0FBECDBF039709F4BFCF012BF6
:1007300009F066CF84E090E065CF4F925F926F92B0
:100740007F92AF92BF92CF92DF92EF92FF920F9380
:100750001F93CF93DF9384E491E00E94890289E0A4
:1007600090E090930101809300010AE010E098EE80
:10077000E92E93E0F92EC091BC01D091BD01CA30A1
:10078000D1050CF092C06E01CC0CDD1CCC0CDD1C34
:10079000F601EE56FE4FA080B180A114B10409F419
:1007A00084C04090BE015090BF016090C001709025
:1007B000C101411451046104710409F45AC00E943A
:1007C0007002460E571E681E791E4092C20150925A
:1007D000C3016092C4017092C5011092BE011092D3
:1007E000BF011092C0011092C101F601EE56FE4FFA
:1007F000628173816B307105D8F47093BB01609393
:10080000BA01072E000C880B990B0E947C0820E08F
:1008100030E040E251E40E94AF0920E030E04FE7D1
:1008200053E40E94B7080E94210ACB010E941802DB
:100830008FEC91E00E94EC00892B79F40E94700209
:100840004090C2015090C3016090C4017090C501F6
:10085000641575058605970558F38FEC91E00E94A5
:10086000EC00892B39F52196D093BD01C093BC01D2
:1008700082CF0E947002AB01BC01AE9CC001AF9C54
:10088000900DBE9C900D1124092E000CAA0BBB0BE1
:10089000840F951FA61FB71F8093C2019093C301B9
:1008A000A093C401B093C501A0CF109301010093A0
:1008B000000161CFDF91CF911F910F91FF90EF90D9
:1008C000DF90CF90BF90AF907F906F905F904F90F0
:1008D0000895CF92DF92EF92FF928FE491E00E9411
:1008E00089020E9470026B017C0189E090E0909384
:1008F0000101809300011092BB011092BA0190E0B7
:1009000080E00E9418028091C2019091C301A091E1
:10091000C401B091C501C816D906EA06FB0688F4E1
:100920008C199D09AE09BF098093BE019093BF0148
:10093000A093C001B093C101FF90EF90DF90CF90E2
:1009400008958091BC019091BD0101969093BD01E5
:100950008093BC01F1CF8F929F92AF92BF92CF92C2
:10096000DF92EF92FF921F93CF93DF93CDB7DEB765
:10097000A1970FB6F894DEBF0FBECDBF8CE591E016
:100980000E948902E0909001F090910189E090E04E
:10099000909301018093000110E48AE0882E912C4D
:1009A000A12CB12C8FEC91E00E94EC00892B09F076
:1009B00060C010937C0080917A00806480937A00FC
:1009C00080917A0086FDFCCFC0907800D0907900AD
:1009D000D0929101C0929001EC14FD0419F30D2CFA
:1009E000000CEE08FF08F7FE2EC06DE28FEC91E0E0
:1009F0000E942E0122273327A9012C193D094E09F7
:100A00005F0919A2CE0181967C01CA01B901A50135
:100A100094010E94570A605DF70162937F012115DE
:100A200031054105510589F7E114F10419F0C701B9
:100A30000E947C028AE191E00E947C02E090900199
:100A4000F0909101AFCFA701960119A2CE01819636
:100A50007C01CA01B901A50194010E94570A605D99
:100A6000F70162937F01211531054105510589F791
:100A7000DBCFA1960FB6F894DEBF0FBECDBFDF91DE
:100A8000CF911F91FF90EF90DF90CF90BF90AF90EC
:100A90009F908F9008958AE691E00E94890289E0F4
:100AA00090E090930101809300011092BD0110929B
:100AB000BC011092BE011092BF011092C0011092B1
:100AC000C1010C94AB04CF92DF92EF92FF920F938F
:100AD0001F93CF93DF937C018B016A01CCE6D2E0B8
:100AE0006C817D816F5F7F4F83E0660F771F8A95F2
:100AF000E1F78A819B810E94A40B9B838A832C81CE
:100B00003D81F90143E0EE0FFF1F4A95E1F7E80F41
:100B1000F91FF182E08213830283D582C482178297
:100B200016822F5F3F4F3D832C83DF91CF911F9122
:100B30000F91FF90EF90DF90CF9008951F920F924A
:100B40000FB60F9211242F933F934F935F936F93A0
:100B50007F938F939F93AF93BF93EF93FF938FEC0C
:100B600091E00E940C01FF91EF91BF91AF919F9195
:100B70008F917F916F915F914F913F912F910F9046
:100B80000FBE0F901F9018951F920F920FB60F92E5
:100B900011242F938F939F93EF93FF93E091DF01A5
:100BA000F091E0018081E091E501F091E60182FDA4
:100BB0001BC090818091E8018F5F8F732091E901C4
:100BC000821741F0E091E801F0E0E153FE4F958F8C
:100BD0008093E801FF91EF919F918F912F910F905A
:100BE0000FBE0F901F9018958081F4CF1F920F9227
:100BF0000FB60F9211242F933F938F939F93AF9330
:100C0000BF938091CB019091CC01A091CD01B09187
:100C1000CE013091CA0123E0230F2D3758F50196FC
:100C2000A11DB11D2093CA018093CB019093CC01EB
:100C3000A093CD01B093CE018091C6019091C701E0
:100C4000A091C801B091C9010196A11DB11D809369
:100C5000C6019093C701A093C801B093C901BF9189
:100C6000AF919F918F913F912F910F900FBE0F9059
:100C70001F90189526E8230F0296A11DB11DD2CF13
:100C8000EFECF1E01382128288EE93E0A0E0B0E096
:100C900084839583A683B7838CE091E091838083DE
:100CA00085EC90E09587848784EC90E09787868731
:100CB00080EC90E0918B808B81EC90E0938B828B29
:100CC00082EC90E0958B848B86EC90E0978B868B02
:100CD000118E128E138E148EA5E9B2E087E992E090
:100CE00011969C938E9313961C921E9212971596B2
:100CF0001C921E921497EFE8F2E08DEA92E0918345
:100D000080831382128215821482E9E8F2E08BEA72
:100D100094E0918380831382128215821482E3E827
:100D2000F2E08BE495E09183808313821282158236
:100D30001482EDE7F2E08DE993E0918380831382E2
:100D4000128215821482E7E7F2E089E694E091834B
:100D500080831382128215821482ECE6F2E0B18362
:100D6000A083138212821582148211861086128645
:100D70000895789484B5826084BD84B5816084BD13
:100D800085B5826085BD85B5816085BD80916E0029
:100D9000816080936E00109281008091810082605A
:100DA0008093810080918100816080938100809197
:100DB00080008160809380008091B1008460809386
:100DC000B1008091B00081608093B00080917A0082
:100DD000846080937A0080917A00826080937A00A8
:100DE00080917A00816080937A0080917A00806897
:100DF00080937A001092C10061E089E00E94E701CF
:100E000061E08CE00E94E70160E082E00E94E7017F
:100E1000E091DF01F091E00182E08083E091DB016D
:100E2000F091DC011082E091DD01F091DE018FECA8
:100E300080831092E701E091E301F091E40186E004
:100E40008083E091E101F091E20180818061808303
:100E5000E091E101F091E201808188608083E0917E
:100E6000E101F091E201808180688083E091E101FD
:100E7000F091E20180818F7D808350E040E06FE857
:100E800072E085E992E00E94630542E050E069E883
:100E900072E085E992E00E94630544E050E065E974
:100EA00072E08FE892E00E94630541E050E063E861
:100EB00072E08FE892E00E94630545E050E06DE744
:100EC00072E083E892E00E94630550E040E06FE842
:100ED00072E083E892E00E9463054AE050E063E834
:100EE00072E08DE792E00E94630546E050E067E71C
:100EF00072E08DE792E00E94630547E050E06DE705
:100F000072E087E792E00E94630543E050E065E904
:100F100072E089E892E00E94630587E791E00E9411
:100F2000890226E0622E712C35E0832E912C04E09C
:100F300010E043E0E42EF12CAA24A394B12C90E01D
:100F4000C92E90E0D92E84E891E00E948902809118
:100F5000000190910101099711F58FEC91E00E9439
:100F6000EC00892BE1F08FEC91E00E94CA00EFE9E0
:100F7000E80FE83008F095C00E2E000CFF0BED5383
:100F8000F84F0C94790ACB072E0833083A083F082B
:100F9000440849084E081092010110920001809106
:100FA0007602882309F483C0209100013091010169
:100FB0004091700250917102E0916C02F0916D02CB
:100FC000C0916E02D0916F0290E080E08417950787
:100FD0000CF06DC0688179816E177F0709F064C0DD
:100FE0006C817D812617370709F05EC00480F5818A
:100FF000E02D309709F00995EE81FF81309709F0D7
:101000000995EA81FB810190F081E02D309709F08C
:1010100009958A819B8190936D0280936C020E9456
:101020007002209174023091750240916C025091CF
:101030006D02E0917202F0917302D0E0C0E0C2173D
:10104000D307ACF5A081B181A417B50721F460875F
:1010500071878287938721967096F1CFB0920101B4
:10106000A09200019CCF82E090E0909301018093D8
:10107000000195CFF0920101E092000190CF109312
:101080000101009300018BCF909201018092000139
:1010900086CF709201016092000181CF87E090E0DD
:1010A000E4CF88E090E0E1CF019628968FCFC1147D
:1010B000D10409F448CF0E94F800882309F43CCFFA
:1010C0000E94000039CFCF93DF93CCE6D2E08A8133
:1010D0009B810E941B0B8E819F81DF91CF910C948D
:1010E0001B0B91110C942409803219F08950855002
:1010F000C8F70895E89409C097FB3EF49095809551
:10110000709561957F4F8F4F9F4F9923A9F0F92FCD
:1011100096E9BB279395F695879577956795B7954B
:10112000F111F8CFFAF4BB0F11F460FF1BC06F5F31
:101130007F4F8F4F9F4F16C0882311F096E911C043
:10114000772321F09EE8872F762F05C0662371F064
:1011500096E8862F70E060E02AF09A95660F771F78
:10116000881FDAF7880F9695879597F908950E945A
:10117000CA080C943E090E94300938F00E943709D1
:1011800020F0952311F00C9427090C942D091124BB
:101190000C9472090E944F0970F3959FC1F3950F4B
:1011A00050E0551F629FF001729FBB27F00DB11DEB
:1011B000639FAA27F00DB11DAA1F649F6627B00D7B
:1011C000A11D661F829F2227B00DA11D621F739F64
:1011D000B00DA11D621F839FA00D611D221F749F72
:1011E0003327A00D611D231F849F600D211D822FB9
:1011F000762F6A2F11249F5750409AF0F1F08823E0
:101200004AF0EE0FFF1FBB1F661F771F881F91500C
:101210005040A9F79E3F510580F00C9427090C948B
:1012200072095F3FE4F3983ED4F38695779567950E
:10123000B795F795E7959F5FC1F7FE2B880F911D36
:101240009695879597F9089599278827089597F98E
:101250009F6780E870E060E008959FEF80EC08955C
:1012600000240A9416161706180609060895002485
:101270000A9412161306140605060895092E0394FF
:10128000000C11F4882352F0BB0F40F4BF2B11F473
:1012900060FF04C06F5F7F4F8F4F9F4F089557FDD2
:1012A0009058440F551F59F05F3F71F04795880FD4
:1012B00097FB991F61F09F3F79F08795089512166B
:1012C00013061406551FF2CF4695F1DF08C0161617
:1012D00017061806991FF1CF8695710561050894C8
:1012E0000895E894BB2766277727CB0197F90895DF
:1012F0002F923F924F925F926F927F928F929F9226
:10130000AF92BF92CF92DF92EF92FF920F931F9313
:10131000CF93DF93CDB7DEB7CA1BDB0B0FB6F894C4
:10132000DEBF0FBECDBF09942A88398848885F8404
:101330006E847D848C849B84AA84B984C884DF8075
:10134000EE80FD800C811B81AA81B981CE0FD11D59
:101350000FB6F894DEBF0FBECDBFED0108950E9419
:10136000C3090C943E090E94370958F00E943009C5
:1013700040F029F45F3F29F00C94270951110C9497
:1013800072090C942D090E944F0968F39923B1F357
:10139000552391F3951B550BBB27AA27621773079B
:1013A000840738F09F5F5F4F220F331F441FAA1F2F
:1013B000A9F335D00E2E3AF0E0E832D091505040EB
:1013C000E695001CCAF72BD0FE2F29D0660F771F99
:1013D000881FBB1F261737074807AB07B0E809F07F
:1013E000BB0B802DBF01FF2793585F4F3AF09E3F04
:1013F000510578F00C9427090C9472095F3FE4F3CF
:10140000983ED4F3869577956795B795F7959F5F46
:10141000C9F7880F911D9695879597F90895E1E092
:10142000660F771F881FBB1F621773078407BA07F1
:1014300020F0621B730B840BBA0BEE1F88F7E0954C
:1014400008950E94280A6894B1110C9472090895B5
:101450000E94570988F09F5798F0B92F9927B751E4
:10146000B0F0E1F0660F771F881F991F1AF0BA9548
:10147000C9F714C0B13091F00E947109B1E008952C
:101480000C947109672F782F8827B85F39F0B93F1E
:10149000CCF3869577956795B395D9F73EF49095FB
:1014A0008095709561957F4F8F4F9F4F0895A1E272
:1014B0001A2EAA1BBB1BFD010DC0AA1FBB1FEE1FCE
:1014C000FF1FA217B307E407F50720F0A21BB30B19
:1014D000E40BF50B661F771F881F991F1A9469F795
:1014E00060957095809590959B01AC01BD01CF01F1
:1014F0000895EE0FFF1F0590F491E02D09940F93CE
:101500001F93CF93DF938230910510F482E090E037
:10151000E0919D02F0919E0230E020E0B0E0A0E07A
:10152000309799F42115310509F44AC0281B390B6D
:1015300024303105D8F58A819B816115710589F1C7
:10154000FB0193838283FE0111C04081518102819E
:10155000138148175907E0F04817590799F4109775
:1015600061F012960C93129713961C933296CF014A
:10157000DF91CF911F910F91089500939D021093D9
:101580009E02F4CF2115310551F04217530738F070
:10159000A901DB019A01BD01DF01F801C1CFEF0113
:1015A000F9CF90939E0280939D02CDCFFE01E20F72
:1015B000F31F819391932250310939832883D7CF28
:1015C00020919B0230919C02232B41F42091040135
:1015D0003091050130939C0220939B0220910201DF
:1015E000309103012115310541F42DB73EB74091EB
:1015F000060150910701241B350BE0919B02F091ED
:101600009C02E217F307A0F42E1B3F0B28173907A3
:1016100078F0AC014E5F5F4F2417350748F04E0F4E
:101620005F1F50939C0240939B02819391939FCFA5
:10163000F0E0E0E09CCFCF93DF930097E9F0FC016E
:10164000329713821282A0919D02B0919E02ED0109
:1016500030E020E01097A1F420813181820F931FA8
:1016600020919B0230919C022817390709F061C034
:10167000F0939C02E0939B02DF91CF910895EA01E1
:10168000CE17DF07E8F54A815B819E0141155105C0
:10169000B1F7E901FB83EA8349915991C40FD51F42
:1016A000EC17FD0761F4808191810296840F951FEC
:1016B000E90199838883828193819B838A83F0E007
:1016C000E0E012968D919C9113970097B9F52D91BA
:1016D0003C911197CD010296820F931F20919B029E
:1016E00030919C022817390739F6309751F510923E
:1016F0009E0210929D02B0939C02A0939B02BCCFCD
:10170000D383C28340815181840F951FC817D907A5
:1017100061F44E5F5F4F88819981480F591F518353
:1017200040838A819B81938382832115310509F04F
:10173000B0CFF0939E02E0939D029ECFFD01DC01AD
:10174000C0CF13821282D7CFB0E0A0E0EAEAFBE07C
:101750000C947A098C01009751F4CB010E947F0A06
:101760008C01C801CDB7DEB7E0E10C949609FC010D
:10177000E60FF71F9C0122503109E217F30708F426
:101780009DC0D901CD91DC911197C617D70798F06C
:10179000C530D10530F3CE0104978617970708F3BB
:1017A000C61BD70B2297C193D1936D937C93CF0126
:1017B0000E941B0BD6CF5B01AC1ABD0A4C018C0EEC
:1017C0009D1EA0919D02B0919E02512C412CF12CA6
:1017D000E12C109731F580919B0290919C02881525
:1017E000990509F05CC04616570608F058C080916C
:1017F000020190910301009741F48DB79EB740918B
:10180000060150910701841B950BE817F90708F0B2
:1018100055C0F0939C02E0939B02F90171836083B1
:10182000A0CF8D919C91119712966C901297139660
:101830007C901397A815B90559F56C0142E0C40EC8
:10184000D11CCA14DB0420F1AC014A195B09DA018E
:101850001296159780F06282738251834083D9017A
:101860006D937C93E114F10471F0D7011396FC930E
:10187000EE93129776CF22968C0F9D1FF9019183DC
:101880008083F301EFCFF0939E02E0939D0269CF36
:101890004816590608F42C017D01D3019ACFCB01DB
:1018A0000E947F0A7C01009749F0AE01B8010E94B6
:1018B000610CC8010E941B0B870153CF10E000E0B0
:1018C00050CFFB01DC0102C001900D92415050400D
:1018D000D8F70895AEE0B0E0E0E7FCE00C948809AA
:1018E00085E08C838B899C899A838983AE01495ECC
:1018F0005F4F6D897E89CE0101960E940E0E2E9655
:10190000E2E00C94A40920FD09C0FC0123FD05C000
:1019100022FF02C07383628351834083089544FD94
:1019200017C046FD1DC0DB01FC01AA0FBB1FEE1F47
:10193000FF1F1094D1F76A0F7B1F8E1F9F1F660F2A
:10194000771F881F991F620F711D811D911D0895BA
:1019500033E0660F771F881F991F3150D1F7F3CFFF
:1019600034E0F7CF0F931F93CF93DF938C01C8011F
:101970000E941E0FEC0197FD08C00E947108892B80
:10198000B1F7B801CE010E945A0FCE01DF91CF917D
:101990001F910F9108958F929F92AF92BF92EF92F5
:1019A000FF920F931F93CF93DF938C01D62F7A0171
:1019B000B22E0E941E0F9C0133272B32310529F0D5
:1019C0002D323105A9F46894B7F8D15061F480E064
:1019D000DF91CF911F910F91FF90EF90BF90AF904B
:1019E0009F908F900895C8010E941E0F97FDEFCF22
:1019F000CB2DCD7F2B2D2073F9F48033E9F4AA246D
:101A0000AA94AD0E89F0C8010E941E0F97FD0CC06C
:101A1000282F2F7D283561F4C264D25029F0C801E7
:101A20000E941E0F97FF08C0812C912C54011BC0EF
:101A3000B6FE2BC0C260DA2D812C912C540120ED12
:101A4000280F283028F1C4FD09C02A3008F1C6FF4C
:101A500005C02F7D3FEE320F3630C8F0B8010E942E
:101A60005A0FC1FFB4CFC7FF08C0B094A0949094A0
:101A70008094811C911CA11CB11C2C2FB501A401C8
:101A8000C7010E94830C81E0A3CFC261D4CF27504D
:101A90004C2FC501B4010E948F0C4B015C01C26048
:101AA000D15009F3C8010E941E0F97FFC8CFD9CFAC
:101AB000A0E2B0E0EEE5FDE00C947D095C01962E1D
:101AC0007A01CE0101966C0180E2F60111928A95AD
:101AD000E9F7F501B381890130E020E0712C812C18
:101AE000A0E041E050E0F801B3FD8591B3FF8191A2
:101AF000982F8F01811107C010E000E0C801A09667
:101B0000EDE00C9499098E3519F42115310541F158
:101B1000A21713064CF48D3549F18D3229F481104A
:101B200006C0882483941DC0882009F464C0E92F6E
:101B3000E695E695E695EC0DFD2DF11D892F877054
:101B4000BA0101C0660F8A95EAF78081682B60832D
:101B5000791651F0971510F49F5FE9CF9150E7CFB8
:101B6000A1E02F5F3F4FBFCF812CFBCF882019F022
:101B70008E8180628E83AA2359F0F6019E012F5D2B
:101B80003F4F8081809580833196E217F307C9F734
:101B900088248394C5010E941E0F97FD16C0E82F6C
:101BA000E695E695E695EC0DFD2DF11D208130E0E2
:101BB000AC014770552702C0359527954A95E2F745
:101BC00020FD06C0B5010E945A0F882069F094CF0D
:101BD000E114F10429F0F7018083C70101967C012B
:101BE0009A94812C9110D6CFE114F10409F486CF98
:101BF000F701108283CFE82FE695E695E695EC0D88
:101C0000FD2DF11D982F9770BA0101C0660F9A95AE
:101C1000EAF79081692B6083782EA3CFB0E0A0E033
:101C2000E4E1FEE00C947B096C01EB015A01FC013C
:101C300017821682512CF601E380FE01E3FC8591A8
:101C4000E3FE8191182FEF018823E9F090E00E94D4
:101C50007108892B21F0C6010E94B20CECCF15321D
:101C600041F4FE01E3FC1591E3FE1191EF01153201
:101C700069F4C6010E941E0F97FD8EC01817D9F295
:101C8000B6010E945A0F852D90E08AC000E01A32FA
:101C900031F4E3FC1591E3FE1191EF0101E0F12C29
:101CA00020ED210F2A3048F101FF37C0FF2059F302
:101CB0001836B1F11C3609F43DC0112321F3612F10
:101CC00070E088E690E00E94130F892BE1F2912CDE
:101CD000812C00FD06C0F50180809180C50102962F
:101CE0005C011E3679F5F6014681578170E060E0AF
:101CF000202FC4010E94830C9ECF02606F2D70E0E4
:101D000090E080E040E20E948F0CF62EFE01E3FCA2
:101D10001591E3FE1191EF01C3CFFF24FA94C8CFD0
:101D2000FE01E3FC1591E3FE1191EF01183609F075
:101D3000C4CF08600460FE01E3FC1591E3FE11913D
:101D4000EF01BBCF1336C1F401FD02C0FF24F394B1
:101D5000C6010E941E0F97FD1FC08114910429F037
:101D6000F4018083C40101964C01FA94F110F0CF84
:101D700000FD61CF53945FCF1B35B9F49E01A401E0
:101D80006F2DC6010E94580DEC01892B89F7F601D1
:101D90008381807309F477CF8FEF9FEF511073CF5A
:101DA000CDB7DEB7EFE00C949709C6010E94B20CE4
:101DB00097FDF2CF1F36A9F130F4143641F01936F1
:101DC00039F0006405C01337B9F01537D1F7006258
:101DD000202FA4016F2DC6010E94CB0C8111C8CF0A
:101DE000D6CF8114910429F0F4016082C4010196D8
:101DF0004C01FA94FF2071F0C6010E941E0F3C01B5
:101E000097FD08C00E947108892B59F3B601C301E0
:101E10000E945A0F8114910409F4AACFF401108290
:101E2000A7CF0061D5CFFC010590061621F0002058
:101E3000D9F7C00108953197CF010895CF93DF936B
:101E4000EC012B8120FF1AC026FF0CC02F7B2B83B7
:101E50008E819F8101969F838E838A8190E0DF919E
:101E6000CF91089522FF18C0E881F9818081082E62
:101E7000000C990B009729F420622B838FEF9FEFC2
:101E8000EECF3196F983E8832E813F812F5F3F4F5C
:101E90003F832E839927E3CFEA85FB85099597FF3A
:101EA000F3CF2B81019621F080E2822B8B83E6CF4A
:101EB00080E1FBCFFB01238120FF11C026FD0FC075
:101EC0008F3F980771F082832F7D206423832681C2
:101ED00037812150310937832683992708958FEF61
:101EE0009FEF089510E0C3E6D0E004C0FE010E9419
:0E1EF000790A2196C436D107C9F7F894FFCFBE
:101EFE00090000009F028000000000002E018E00ED
:101F0E00BB007B01EC00CA00DE000D0A00537461B9
:101F1E0074655F69646C652E0053746174655F67E8
:101F2E0065747365742E0025643A25642325640058
:101F3E0041434B0053746174655F72756E2E00538E
:101F4E00746174655F70617573652E00537461748E
:101F5E00655F636F6E6669672E0053746174655FAB
:101F6E0072656164792E00536574757020726561B7
:101F7E0064792E004D61696E206C6F6F702E0000BB
:00000001FF
